:100000000C9482000C94A3000C94A3000C94A30005
:100010000C94A3000C94A3000C94A3000C94A300D4
:100020000C94A3000C94A3000C94A3000C94A300C4
:100030000C94A3000C94A3000C94A3000C94A300B4
:100040000C94A3000C94A3000C94A3000C94A300A4
:100050000C94A3000C94A3000C94A3000C94A30094
:100060000C94A3000C94A3000C94A3000C94A30084
:100070000C94A3000C94A3000C94A3000C94A30074
:100080000C94A3000C94A3000C94A3000C94A30064
:100090000C94A3000C94A3000C94A3000C94A30054
:1000A0000C94A3000C94A3000C94A3000C94A30044
:1000B0000C94A3000C94A3000C94A3000C94A30034
:1000C0000C94A3000C94A3000C94A3000C94A30024
:1000D0000C94A3000C94A3000C94A3000C94A30014
:1000E0000C94A300F00BF00BCC0BCC0BBC0BBC0B9B
:1000F000130C130C0C94F00B0C94CC0B0C94BC0B49
:100100000C94130C11241FBECFEFD1E2DEBFCDBF84
:1001100000E00CBF15E0A0E0B2E0EAE8F1E300E0A7
:100120000BBF02C007900D92A836B107D9F725E0A2
:10013000A8E6B5E001C01D92A23BB207E1F70E941C
:10014000A9000C94C3180C9400000E9478110C9420
:100150007711CF93DF93CDB7DEB786E292E00E94AE
:10016000C311E6E7F5E084E392E09383828383E0C2
:1001700090E0A0E0B0E080879187A287B387848574
:100180009585A685B7850196A11DB11D84879587A4
:10019000A687B78786E995E00E947318892B69F0D6
:1001A00086E995E00E947318892B61F00E94D406BD
:1001B0000E94EF11DF91CF9108950E9477110E9464
:1001C000E500EECF0E947811F1CFAF92CF92DF928F
:1001D000EF92FF920F931F9384E2A82E95E0C92E11
:1001E000D12CE12CF12C00E010E021E030E040E0E7
:1001F00050E061E070E080E090E00E94C5071F9150
:100200000F91FF90EF90DF90CF90AF9008954F92B5
:100210005F926F927F928F929F92AF92BF92CF9296
:10022000DF92EF92FF920F931F93CF932B013C012C
:1002300049015A0167017801C501B4010E941F14E8
:100240009B01AC010E948C14A5019401882309F440
:1002500044C0C501B4010E948C14811144C0A7019F
:100260009601C701B6010E941F149B01AC010E94B8
:100270008C14811167C0A5019401C701B6010E94C9
:100280001F144B015C0120E030E0A9010E948C1496
:1002900087FD53C020E030E0A901C301B2010E94F4
:1002A0008C1487FD45C0A5019401C501B4010E94CD
:1002B0008C14882321F180E090E0CF911F910F9161
:1002C000FF90EF90DF90CF90BF90AF909F908F9076
:1002D0007F906F905F904F900895C501B4010E9488
:1002E0008C14882341F2A7019601C701B6010E9430
:1002F0008C14882309F4BFCF81E090E0DECFA50104
:100300009401C501B4010E941F149B01AC010E941D
:100310008C148111D0CFA5019401C301B2010E94B8
:100320008C14881F8827881F91E0892790E0C5CF0B
:1003300077FA709477F87094B6CFB7FAB094B7F8AC
:10034000B094A8CFA7019601C701B6010E948C14F2
:10035000811191CF20E030E0A901C501B4010E94D4
:100360008C14881F8827881F91E0C82FC92720E098
:1003700030E0A901C701B6010E948C14881F8827AC
:10038000881FC813B9CF77CF4F925F926F927F9239
:100390008F929F92AF92BF92CF92DF92EF92FF9295
:1003A0000F931F93CF93DF931F921F92CDB7DEB7AA
:1003B0006B017C0149015A018EE290E00E947313A7
:1003C000181419041A041B045CF58AE0482E512CF9
:1003D000612C712C04C0232B242B252B09F1C70180
:1003E000B601A50194010E94F813182F092FC90125
:1003F000C09669837A830E9473136981C62E7A81BD
:10040000D72EE12EF02EC501B401A30192010E9466
:10041000F81349015A01C114D104E104F104D9F6D9
:100420000F900F90DF91CF911F910F91FF90EF9060
:10043000DF90CF90BF90AF909F908F907F906F9004
:100440005F904F9008954F925F926F927F928F923C
:100450009F92AF92BF92CF92DF92EF92FF924B01A9
:100460005C01C12CD12C7601C3948AE088169104DA
:10047000A104B104E8F0CC0CDD1CEE1CFF1CD7017C
:10048000C601880F991FAA1FBB1F880F991FAA1F9B
:10049000BB1FC80ED91EEA1EFB1EC501B401A70171
:1004A00096010E94D6132A3031054105510518F7EF
:1004B0008AE0482E512C612C712CC501B401A70192
:1004C00096010E94D613CA01B901A30192010E94AC
:1004D000D61380E3860F90E00E947313C701B60124
:1004E000A30192010E94D61369017A01232B242BC8
:1004F000252B19F7FF90EF90DF90CF90BF90AF9032
:100500009F908F907F906F905F904F900895CF92C3
:10051000DF92EF92FF926B017C0197FD08C0C7014B
:10052000B601FF90EF90DF90CF900C9423028DE204
:1005300090E00E947313F094E094D094C094C11C96
:10054000D11CE11CF11CC701B601FF90EF90DF90B8
:10055000CF900C942302CF92DF92EF92FF92CF9331
:100560006B017C01C42F493030F0C8E006C0805DCB
:1005700090E00E947313CC23D1F0C1508C2F880FD0
:10058000880FA701960104C0569547953795279582
:100590008A95D2F7DA01C9018F7099278A309105BF
:1005A00034F3895C90E00E947313C111E6CFCF91C0
:1005B000FF90EF90DF90CF900895CF93DF93EC0101
:1005C000892BF1F098819923D9F080EE890F8F352E
:1005D000D0F09D3041F19A30E1F08CE590E00E943E
:1005E000731388E790E00E947313688170E080E0E5
:1005F00090E042E00E94AB02219698819111E5CFF4
:10060000DF91CF910895892F90E00E947313219676
:10061000F4CF8CE590E00E9473138EE690E00E9488
:1006200073132196EACF8CE590E00E94731382E762
:1006300090E00E9473132196E0CFCF93DF9300D018
:100640001F92CDB7DEB749835A836B837C830E94A8
:10065000DD028AE390E00E94731349815A816B8125
:100660007C81CB01BA010E9487028AE390E00E945C
:10067000731380917805909179050E94DD028AE3D9
:1006800090E00F900F900F900F90DF91CF910C940E
:100690007313AB01BC0180917605909177050E94A0
:1006A0001D0383E094E00E94DD028AE390E00C9455
:1006B0007313CF93DF93009771F1EC0184EF93E014
:1006C0000E94DD0280917A0590917B05892BF1F0E3
:1006D0008AE592E00E94DD0280917A0590917B0587
:1006E0000E94DD0280917C0590917D05892B51F05F
:1006F0008FE492E00E94DD0280917C0590917D055F
:100700000E94DD0284EF93E00E94DD02CE01DF91C2
:10071000CF910C94DD02DF91CF9108950F931F9339
:10072000FB018617970731F0BA01A901892BA9F0BF
:10073000EF2B29F080E090E01F910F910895CB01FD
:10074000BA010E94490389E393E00E94DD02C801D7
:100750000E94590381E090E0EFCFCB01BA010E94E3
:10076000490382E593E00E94DD02C8010E9459031B
:1007700081E090E0E1CF0F931F93CF93DF93EC01E3
:100780008B0189EE93E00E94DD02209761F087E201
:1007900090E00E947313CE010E94DD0287E290E098
:1007A0000E94731304C087EF93E00E94DD0283EE82
:1007B00093E00E94DD020115110579F087E290E0D7
:1007C0000E947313C8010E94DD0287E290E0DF916E
:1007D000CF911F910F910C94731387EF93E0DF91EA
:1007E000CF911F910F910C94DD028F929F92AF9247
:1007F000BF92EF92FF920F931F93CF93DF93EC0181
:100800004A015B01892BC9F198819923B1F17E01DD
:10081000452B462B472B29F530C09D3009F441C0AC
:100820009A30B1F18CE590E00E94731388E790E074
:100830000E947313688170E080E090E042E00E94C3
:10084000AB02219698819923C1F08E010E191F09E0
:10085000012E000C220B330B081519052A053B0548
:1008600060F480EE890F8F35C0F6892F90E00E94EA
:100870007313219698819111E8CFDF91CF911F9149
:100880000F91FF90EF90BF90AF909F908F90089541
:100890008CE590E00E9473138EE690E00E94731343
:1008A000D0CF8CE590E00E94731382E790E00E9425
:1008B0007313C7CFCF92DF92EF92FF92CF9344FD95
:1008C00020C045FD17C0C42F6B017C0180E390E080
:1008D0000E94731388E790E00E9473134C2F4F70AF
:1008E000440FC701B601CF91FF90EF90DF90CF90FA
:1008F0000C94AB02CF91FF90EF90DF90CF900C94CF
:100900002302CF91FF90EF90DF90CF900C9487025D
:100910004F925F926F927F928F929F92AF92BF920F
:10092000CF92DF92EF92FF92CF93DF934B015C0166
:1009300029013A01C0E0D0E0C12C90E8D92EE12C89
:10094000F12C0CC081E390E00E947313F694E794BD
:10095000D794C7942196C031D10501F1D701C601C2
:1009600088219921AA21BB21892B8A2B8B2B29F144
:10097000D701C60184219521A621B721892B8A2B75
:100980008B2B01F780E390E00E947313F694E794B9
:10099000D794C7942196C031D10501F7DF91CF914B
:1009A000FF90EF90DF90CF90BF90AF909F908F908F
:1009B0007F906F905F904F90089588E590E00E943F
:1009C0007313C4CF4F925F926F927F928F929F92D8
:1009D000AF92BF92CF92DF92EF92FF920F931F934D
:1009E000CF93DF93CDB7DEB728970FB6F894DEBF6D
:1009F0000FBECDBF6B017C0120E030E0A9010E9459
:100A00008C1487FDB8C1A7019601C701B6010E94E9
:100A10008C1481118AC1A7019601C701B6010E94F9
:100A20001F149B01AC010E948C148823F1F043E059
:100A300050E060E070E08BE293E028960FB6F89407
:100A4000DEBF0FBECDBFDF91CF911F910F91FF9001
:100A5000EF90DF90CF90BF90AF909F908F907F905E
:100A60006F905F904F900C94F5032DEB37E346E0C9
:100A700055E3C701B6010E948C14181654F020E00B
:100A800030E0A901C701B6010E94EB1518160CF45D
:100A900066C120E030E040E85FE4C701B6010E9493
:100AA0008C1487FDBCC020E030E040E251E4C70177
:100AB000B6010E9491144B015C0128E23BE64EE630
:100AC0005EE40E94EB1587FD64C1412C512C80E24D
:100AD000682E81E4782E09E010E020E030E040E26A
:100AE00051E4C301B2010E94F0152B013C010F5FDC
:100AF0001F4F9B01AC01C701B6010E9491144B012D
:100B00005C0128E23BE64EE65EE40E94EB1587FFBF
:100B1000E4CFC801012E000CAA0BBB0B89839A837A
:100B2000AB83BC8320E030E040E05FE3C501B4016B
:100B30000E9420140E9403152B013C010E943B15CA
:100B4000A50194010E94EB1518165CF5D301C201B2
:100B50000197A109B1098D839E83AF83B887BC013A
:100B6000CD010E943B159B01AC01C501B4010E945F
:100B70001F1420E030E040E05FE30E948C14181660
:100B800084F040FE0EC028E736E847E054E6C7018F
:100B9000B6010E948C1487FF04C04D805E806F8078
:100BA0007884C301B20120E031EE45EF55E00E94A8
:100BB000F8136B017C01C901C0960E94731320E8F1
:100BC00036E948E950E0C701B6010E94C40185E654
:100BD00090E00E9473138BE290E00E94731309303F
:100BE000110509F4D1C069817A818B819C81289695
:100BF0000FB6F894DEBF0FBECDBFDF91CF911F912E
:100C00000F91FF90EF90DF90CF90BF90AF909F90AB
:100C10008F907F906F905F904F900C948702C701E8
:100C2000B6010E940A152B013C010E9439159B0157
:100C3000AC01C701B6010E941F1420E034E244E772
:100C400059E40E94F01569837A838B839C8320E0AA
:100C500030E040E05FE30E9420140E9403154B0146
:100C60005C010E943B159B01AC0169817A818B81FB
:100C70009C810E948C1487FF2DC0D501C40101976F
:100C8000A109B1098D839E83AF83B887BC01CD01D3
:100C90000E943B159B01AC0169817A818B819C810B
:100CA0000E941F1420E030E040E05FE30E948C14BB
:100CB000181684F080FE0EC028E736E847E054E6B8
:100CC000C701B6010E948C1487FF04C08D809E80EE
:100CD000AF80B88490E4891692E499069FE0A90653
:100CE000B10409F43FC0C301B2010E94230220EA0B
:100CF00036E841E050E0C501B40128960FB6F894FB
:100D0000DEBF0FBECDBFDF91CF911F910F91FF903E
:100D1000EF90DF90CF90BF90AF909F908F907F909B
:100D20006F905F904F900C94C40185E193E02896FA
:100D30000FB6F894DEBF0FBECDBFDF91CF911F91EC
:100D40000F91FF90EF90DF90CF90BF90AF909F906A
:100D50008F907F906F905F904F900C94DD0283E4B2
:100D600092E0E5CFAFEF4A1A5A0A6A0A7A0A812C52
:100D7000912C5401B8CF8DE290E00E947313F7FAE2
:100D8000F094F7F8F0943FCE80E390E00E94731364
:100D90002ACF89E090E0A0E0B0E089839A83AB831A
:100DA000BC8309E010E0BECE80919205909193053E
:100DB000A0919405B0919505892B8A2B8B2B99F5E1
:100DC00080918E0590918F05A0919005B09191052D
:100DD000892B8A2B8B2BD9F18091860590918705E1
:100DE000A0918805B09189050196A11DB11D809340
:100DF000860590938705A0938805B0938905109286
:100E00008E0510928F051092900510929105109208
:100E100092051092930510929405109295058AE020
:100E200090E00C94731380918A0590918B05A091AA
:100E30008C05B0918D050196A11DB11D80938A0589
:100E400090938B05A0938C05B0938D05D8CF4091DE
:100E50007E0550917F05609180057091810580919C
:100E60007605909177050E941D0388E094E00E942A
:100E7000DD02C5CF2F923F924F925F926F927F9289
:100E80008F929F92AF92BF92CF92DF92EF92FF929A
:100E90000F931F93CF93DF9300D01F92CDB7DEB790
:100EA00040908E0550908F05609090057090910550
:100EB000452846284728D1F4409092055090930544
:100EC000609094057090950545284628472871F450
:100ED00029013A014E245F246026712646225722BA
:100EE00068227922452846284728B9F40F900F90A8
:100EF0000F900F90DF91CF911F910F91FF90EF9086
:100F0000DF90CF90BF90AF909F908F907F906F9029
:100F10005F904F903F902F900895160167017801E0
:100F20002B013C01C501B40129833A834B835C83C7
:100F30000E94490389EE93E00E94DD0229813A81F3
:100F40004B815C81C301B2010E94880483EE93E06F
:100F50000E94DD02A7019601C301B2010E9488042C
:100F6000C1010E94590381E090E0A0E0B0E08093CD
:100F70008E0590938F05A0939005B093910561E045
:100F800070E086E995E00E9495184F925F926F920B
:100F90007F92AF92BF92CF92DF92EF92FF920F9328
:100FA0001F93CF93DF9300D01F92CDB7DEB7409051
:100FB0008E0550908F0560909005709091054528A2
:100FC0004628472889F440909205509093056090F8
:100FD00094057090950545284628472829F46217FE
:100FE00073078407950799F40F900F900F900F9057
:100FF000DF91CF911F910F91FF90EF90DF90CF90F5
:10100000BF90AF907F906F905F904F900895C9828E
:10101000DA82EB82FC8269017A012B013C01698151
:101020007A818B819C810E94490389EE93E00E9422
:10103000DD024A2DC301B2010E945A0483EE93E0FF
:101040000E94DD024A2DC701B6010E945A04C80160
:101050000E94590381E090E0A0E0B0E080938E050B
:1010600090938F05A0939005B093910561E070E097
:1010700086E995E00E9495182F923F924F925F92D9
:101080006F927F928F929F92AF92BF92CF92DF9298
:10109000EF92FF920F931F93CF93DF93CDB7DEB7FD
:1010A0002E970FB6F894DEBF0FBECDBF9A8389830B
:1010B0003B0119012A011E830D83AC828B82809132
:1010C0008E0590918F05A0919005B0919105892B87
:1010D0008A2B8B2B09F06FC080919205909193051C
:1010E000A0919405B0919505892B8A2B8B2B09F043
:1010F00062C0232B242B252B09F4F4C029813A81CB
:101100002617370709F457C00D811E81A7019601E4
:1011100089819A810E948E03892B09F0D1C08C812C
:101120008F7090E0B201A10141505109610971092C
:101130004F83588769877A87B201A10122C0E9816C
:10114000FA81608171811B01770F44085508F30112
:10115000608171814B01770FAA08BB0828143904FC
:101160004A045B0409F057C06B81613009F44CC03C
:10117000680E791EBA01A901411551056105710575
:10118000D1F09A01AB012150310941095109813057
:10119000910551F18230910591F2E981FA81208027
:1011A000318042805380F30180809180A280B3809F
:1011B00084E090E0D3CF2E960FB6F894DEBF0FBE3A
:1011C000CDBFDF91CF911F910F91FF90EF90DF90F6
:1011D000CF90BF90AF909F908F907F906F905F90D7
:1011E0004F903F902F900895E981FA816081262EDB
:1011F000660F330844085508F3016081862E660F98
:101200009908AA08BB08AACFE981FA81E80FF91F5B
:10121000FA83E983ADCF32012101FC81F5FF20C0C3
:1012200084309105E9F0BC01660F771F660F771FC8
:10123000660F771F81E090E0A0E0B0E004C0880F67
:10124000991FAA1FBB1F6A95D2F70197A109B1097F
:10125000482259226A227B2288229922AA22BB2272
:10126000C701B6012B873C874D875E870E944903E3
:1012700089ED93E00E94DD022B853C854D855E85DE
:101280006F81788589859A85621B730B840B950B1A
:101290000E94230289EE93E00E94DD024C81C3018B
:1012A000B2010E945A0483EE93E00E94DD024C8159
:1012B000C501B4010E945A048D819E810E94590388
:1012C00081E090E0A0E0B0E080938E0590938F05E0
:1012D000A0939005B093910561E070E086E995E0F8
:1012E0000E949518C701B6010E9449038FE693E05A
:1012F0000E94DD028D819E810E945903E1CF2F92D1
:101300003F924F925F926F927F928F929F92AF9295
:10131000BF92CF92DF92EF92FF920F931F93CF93E2
:10132000DF93CDB7DEB72F970FB6F894DEBF0FBEB1
:10133000CDBF9A8389834B0129013A011D830C8318
:10134000CE82DF82E886F986AB8280918E0590910D
:101350008F05A0919005B0919105892B8A2B8B2B3D
:1013600009F068C08091920590919305A091940531
:10137000B0919505892B8A2B8B2B09F05BC0232B11
:10138000242B252B09F4B2C089819A8186179707EF
:1013900009F450C00C811D812E813F8148855985FB
:1013A0000E948E03892B09F08FC0D301C2010197DF
:1013B000A109B1098A879B87AC87BD8714015301B6
:1013C000420105C081149104A104B10499F191E096
:1013D000891A9108A108B1083F862E86A4E02A0E3A
:1013E000311CE981FA814080518062807380AE8532
:1013F000BF85CD90DD90ED90FC902CEA35EC47E276
:1014000057E3C301B2010E94F01587017601A301E1
:1014100092010E940701892B31F1BB81B13091F615
:10142000E981FA813496FA83E98381149104A10455
:10143000B10469F62F960FB6F894DEBF0FBECDBF8C
:10144000DF91CF911F910F91FF90EF90DF90CF90A0
:10145000BF90AF909F908F907F906F905F904F90D4
:101460003F902F9008952E843F846E817F818885E0
:1014700099850E94490389ED93E00E94DD026A8507
:101480007B858C859D85681979098A099B090E944D
:10149000230289EE93E00E94DD02E981FA816081F6
:1014A0007181828193810E94E20483EE93E00E9425
:1014B000DD02D1016D917D918D919C910E94E2049C
:1014C0008C819D810E94590381E090E0A0E0B0E012
:1014D00080938E0590938F05A0939005B09391050E
:1014E00061E070E086E995E00E949518C701B601B9
:1014F0000E9449038FE693E00E94DD028C819D816A
:101500000E945903E1CF4F925F926F927F928F9228
:101510009F92AF92BF92CF92DF92EF92FF920F9382
:101520001F93CF93DF9300D01F92CDB7DEB74090CB
:101530008E0550908F05609090057090910545281C
:1015400046284728C1F4409092055090930560903A
:1015500094057090950545284628472861F48982AE
:101560009A82AB82BC824701580129013A010E944C
:101570000701892BA9F00F900F900F900F90DF912A
:10158000CF911F910F91FF90EF90DF90CF90BF9080
:10159000AF909F908F907F906F905F904F90089545
:1015A00069817A818B819C810E94490389EE93E055
:1015B0000E94DD02C301B2010E94E20483EE93E0C7
:1015C0000E94DD02C501B4010E94E204C6010E942E
:1015D000590381E090E0A0E0B0E080938E05909305
:1015E0008F05A0939005B093910561E070E086E9C6
:1015F00095E00E9495182F923F924F925F926F92C2
:101600007F928F929F92AF92BF92CF92DF92EF9292
:10161000FF920F931F93CF93DF93CDB7DEB72F9732
:101620000FB6F894DEBF0FBECDBFE8E0FE2EEEE1B0
:10163000F2E0DE01119601900D92FA94E1F7CE2CC2
:10164000C694D12C80908E0590908F05A090900527
:10165000B090910589288A288B2861F480909205A2
:1016600090909305A0909405B090950589288A28BC
:101670008B28C9F02F960FB6F894DEBF0FBECDBFF2
:10168000DF91CF911F910F91FF90EF90DF90CF905E
:10169000BF90AF909F908F907F906F905F904F9092
:1016A0003F902F900895480159015A8749872B018F
:1016B0003C011E2D11708E2D90E08830910508F4AC
:1016C00054C081E0812790E0A0E0B0E025EF32E057
:1016D0003A832983C12CD12C7601212F30E040E0C0
:1016E00050E082179307A407B50721F2C501B401A2
:1016F0001C873D874E875F870E94490389EE93E0F0
:101700000E94DD022C853D854E855F85232B242B91
:10171000252B09F4A6C0CC0CDD1CE1E0F0E0EC0FB9
:10172000FD1FEC0DFD1D808191810E94DD0283EE85
:1017300093E00E94DD02C301B2010E94E2048985A8
:101740009A850E94590381E090E0A0E0B0E0809388
:101750008E0590938F05A0939005B093910561E05D
:1017600070E086E995E00E949518FC018827EE5804
:10177000FF4F8F4F0C94171401E01B86212C312C46
:10178000A3019201C301B2010E948C14882331F19C
:10179000802F9B85D101A1CFA3019201C301B2018A
:1017A0000E941F149B01AC010E948C14882309F431
:1017B00054C0A3019201C301B2010E948C14811193
:1017C0004CC001E01B86212C312C20E030E0A90127
:1017D000C301B2010E948C1487FDDACF00E0D8CF9C
:1017E000A3019201C301B2010E941F149B01AC012D
:1017F0000E948C14882389F1A3019201C301B201D4
:101800000E948C14811129C001E01B86212C312CEF
:1018100020E030E0A901C301B2010E94EB151816C7
:101820000CF4B6CFDBCFA3019201C301B2010E9439
:101830001F149B01AC010E948C1481110EC001E0A9
:101840001B86212C312CA3019201C301B2010E94FD
:101850008C14882309F49CCFC1CF80E090E0DC0198
:101860003CCF84E393E00E94DD0255CF2F923F925C
:101870004F925F926F927F928F929F92AF92BF92A0
:10188000CF92DF92EF92FF920F931F93CF93DF934C
:1018900000D01F92CDB7DEB740908E0550908F05D7
:1018A000609090057090910545284628472899F545
:1018B0004090920550909305609094057090950526
:1018C00045284628472839F5EA8DE4FF3BC02E1508
:1018D0003F0540075107DCF1B1E0A0E0F0E0E0E0B7
:1018E00029013A014E185F08600A710A64157505EE
:1018F00086059705D8F54B2E5A2E6F2E7E2E4092D8
:101900008E0550928F056092900570929105452842
:101910004628472869F50F900F900F900F90DF91A0
:10192000CF911F910F91FF90EF90DF90CF90BF90DC
:10193000AF909F908F907F906F905F904F903F906F
:101940002F9008952E153F054007510728F6B1E066
:10195000A0E0F0E0E0E027013801421A530A640AEF
:10196000750A641575058605970528F2B0E0C3CFA2
:1019700016016701780129013A0169837A838B8313
:101980009C83C501B4010E94490386EA93E00E944A
:10199000DD024A8D69817A818B819C810E945A0483
:1019A00089EE93E00E94DD024A8DC301B2010E94DC
:1019B0005A0483EE93E00E94DD024A8DC701B6010E
:1019C0000E945A04C1010E94590381E090E0A0E006
:1019D000B0E080938E0590938F05A0939005B0930F
:1019E000910561E070E086E995E00E9495184F92BC
:1019F0005F926F927F92CF92DF92EF92FF920F935E
:101A00001F93CF93DF937C01DB016A0140918E0528
:101A100050918F056091900570919105452B462B53
:101A2000472B09F045C04091920550919305609174
:101A3000940570919505452B462B472BC9F50097CA
:101A4000A9F1109769F0FC01ED0160E070E091915F
:101A500091113BC0FD01E60FF71F9081992341F1E1
:101A6000C901B801ED01412C512C3201439440923F
:101A70008E0550928F0560929005709291050E949C
:101A80004903BE01C7010E94BB03C6010E9459035E
:101A900040928E0550928F0560929005709291054C
:101AA00061E070E086E995E00E9495181097C1F614
:101AB000DF91CF911F910F91FF90EF90DF90CF902A
:101AC0007F906F905F904F90089559916F5F7F4F17
:101AD000951709F4BCCFC4CF4F925F926F927F925B
:101AE0008F929F92AF92BF92CF92DF92EF92FF922E
:101AF0000F931F93CF93DF93FC01EB0140908E0572
:101B000050908F056090900570909105452846286B
:101B1000472809F075C08091920590919305A09196
:101B20009405B0919505892B8A2B8B2B09F068C001
:101B3000C701B60149015A017F01309709F45EC01F
:101B40002097A1F0232B242B252B09F459C0DF016A
:101B5000AE01412C512C3201F2012D91211161C0B5
:101B6000EC0FFD1F2081222309F44AC0412C512C87
:101B70003201439440928E0550928F0560929005F9
:101B8000709291050E94490389EE93E00E94DD0264
:101B900087E290E00E947313B501A401C7010E947F
:101BA000F50387E290E00E94731383EE93E00E94B6
:101BB000DD02209709F461C087E290E00E94731370
:101BC000B501A401CE010E94F50387E290E00E94D6
:101BD0007313C8010E94590381E090E0A0E0B0E0D7
:101BE00080938E0590938F05A0939005B0939105F7
:101BF00061E070E086E995E00E949518209711F564
:101C0000DF91CF911F910F91FF90EF90DF90CF90D8
:101C1000BF90AF909F908F907F906F905F904F900C
:101C20000895FA013191AF012313A0CFFFEF4F1AAE
:101C30005F0A6F0A7F0A481459046A047B0409F09A
:101C40008BCFDECFC12CD12C7601C394C0928E05F0
:101C5000D0928F05E0929005F09291050E94490381
:101C600089EE93E00E94DD0287EF93E00E94DD029F
:101C700083EE93E00E94DD029FCF87EF93E00E9406
:101C8000DD02A7CF2F923F924F925F926F927F9289
:101C90008F929F92AF92BF92CF92DF92EF92FF927C
:101CA0000F931F93CF93DF93CDB7DEB728970FB66F
:101CB000F894DEBF0FBECDBF40908E0550908F05CB
:101CC000609090057090910545284628472809F0B6
:101CD000ADC040909205509093056090940570902F
:101CE000950545284628472809F0A0C03A2CCB8204
:101CF000DC82ED82FE821A83098369017A013B014D
:101D00002C01232B242B252B09F4B8C08617970709
:101D100009F48CC009811A812B813C814D815E813F
:101D20000E948E03892B09F05AC081E0A81609F49D
:101D3000A2C0820180908E0590908F05A0909005A2
:101D4000B0909105B301A201412C512C3201332DE9
:101D5000FB0121903190BF01313009F488C0011599
:101D6000110509F44EC02114310489F0F801D101A4
:101D700080E090E038862F822191211170C02F8061
:101D80003884F101E80FF91F80818823E9F181E0AF
:101D900090E0A0E0B0E080938E0590938F05A09333
:101DA0009005B09391056B817C818D819E810E940D
:101DB0004903F2E0CF16D104E104F10440F089EDCB
:101DC00093E00E94DD02C301B2010E942302B1012F
:101DD000C8010E94BB0389819A810E94590381E056
:101DE00090E0A0E0B0E080938E0590938F05A093E3
:101DF0009005B093910561E070E086E995E00E945E
:101E000095182114310419F681149104A104B10428
:101E100051F68FEF481A580A680A780A4E5F5F4FEA
:101E20004C145D046E047F0409F092CF28960FB61F
:101E3000F894DEBF0FBECDBFDF91CF911F910F9100
:101E4000FF90EF90DF90CF90BF90AF909F908F90DA
:101E50007F906F905F904F903F902F9008953D90AE
:101E60000196231509F488CF2F80388490CFFA018A
:101E70000081118174CF00E010E05CCF6B817C8128
:101E80008D819E810E9449038FE693E00E94DD02CE
:101E900089819A810E945903A2CF2F923F924F923B
:101EA0005F926F927F928F929F92AF92BF92CF92EA
:101EB000DF92EF92FF920F931F93CF93DF93CDB7F3
:101EC000DEB768970FB6F894DEBF0FBECDBF9A831A
:101ED00089833B0119012A01EB82FC820D831E8359
:101EE000DC86CB868D869E86AF86B88A80918E05ED
:101EF00090918F05A0919005B0919105892B8A2B27
:101F00008B2B09F083C08091920590919305A0914D
:101F10009405B09195058F839887A987BA87892BF7
:101F20008A2B8B2B09F072C0EF28E02AE12A09F4F2
:101F3000EFC0232B242B252B09F4EAC0A981BA81F9
:101F4000A617B70709F462C00B851C852D853E8551
:101F50004F855889CD010E948E03892B09F0C3C09B
:101F60008B819C81AD81BE810197A109B109898BCB
:101F70009A8BAB8BBC8BD201C1010197A109B1092E
:101F80008D8B9E8BAF8BB88FCB80DC80ED80FE80FD
:101F900009811A8192E0291A310841085108F80193
:101FA000D3017EA481E0C81AD108E108F10890812C
:101FB0008C919813AAC09F012F5F3F4FCD010196CE
:101FC000B201A10112C09F012F5F3F4FCD010196C9
:101FD0004A015B0111E0811A9108A108B108008152
:101FE0001C9101132CC0B501A401F901DC014F3F84
:101FF0001FEF51076107710731F7711002C0E981C6
:10200000FA81C114D104E104F10461F668960FB6B7
:10201000F894DEBF0FBECDBFDF91CF911F910F911E
:10202000FF90EF90DF90CF90BF90AF909F908F90F8
:102030007F906F905F904F903F902F9008958F0109
:102040003D018D899E89AF89B88D841B950BA60BA8
:10205000B70B8F839887A987BA876D857E858F8513
:1020600098890E94490380EC93E00E94DD028B81F5
:102070009C81AD81BE810297A105B10570F089ED0B
:1020800093E00E94DD0269897A898B899C896C19A9
:102090007D098E099F090E94230282ED93E00E9430
:1020A000DD026F81788589859A850E94230289EEF9
:1020B00093E00E94DD02D8016C9170E080E090E036
:1020C00041E40E945A0483EE93E00E94DD02F30192
:1020D000608170E080E090E041E40E945A048B85CA
:1020E0009C850E94590381E090E0A0E0B0E08093DD
:1020F0008E0590938F05A0939005B093910561E0B4
:1021000070E086E995E00E9495188F013D01A5CF0A
:102110006D857E858F8598890E9449038FE693E0BF
:102120000E94DD028B859C850E945903DCCF4130E3
:10213000A1F0423059F0609368057093690580936F
:102140006A0590936B0588E695E0089560936805AD
:102150007093690588E695E008956093680588E6C0
:1021600095E00895609368057093690580936A050A
:1021700090936B0588E695E008950F931F93CF9396
:10218000DF9300918E0510918F052091900530917D
:102190009105012B022B032B61F400919205109104
:1021A00093052091940530919505012B022B032B6B
:1021B00029F0DF91CF911F910F910895EC0180914B
:1021C0007605909177050E941D0383E094E00E94BC
:1021D000DD02209791F18AE390E00E9473138091D1
:1021E0007A0590917B05892BF1F08AE592E00E94B7
:1021F000DD0280917A0590917B050E94DD0280913D
:102200007C0590917D05892B51F08FE492E00E942E
:10221000DD0280917C0590917D050E94DD0284EFB6
:1022200093E00E94DD028881803221F080E290E01C
:102230000E947313CE010E94DD0281E090E0A0E0D5
:10224000B0E080938E0590938F05A0939005B09396
:10225000910561E070E086E995E00E9495180F9382
:102260001F9300918E0510918F052091900530915C
:102270009105012B022B032B61F400919205109123
:1022800093052091940530919505012B022B032B8A
:1022900019F01F910F9108958C018091760590910E
:1022A00077050E941D038CEF93E00E94DD0201156B
:1022B000110559F08AE390E00E94731380E290E0E8
:1022C0000E947313C8010E94DD0281E090E0A0E04B
:1022D000B0E08093920590939305A0939405B093FA
:1022E000950561E070E086E995E00E9495180895F3
:1022F0000895CF93DF931F921F92CDB7DEB79A83D5
:102300008983E6E7F5E073836283052E000C660B94
:10231000770B408751876287738784859585A6856B
:10232000B7850196A11DB11D84879587A687B787BC
:10233000158214821782168286E995E00E9473182E
:10234000892B69F086E995E00E947318892B91F03A
:102350000E94D4060F900F90DF91CF9108950E94B4
:102360007711E981FA81199586E995E00E94731841
:10237000892B71F70E9478110E94D4060F900F905C
:10238000DF91CF910895E6E7F5E091838083138292
:10239000128210861186128613861486158616867A
:1023A0001786108A118A128A138A148A158A168A45
:1023B000178A108E118E128E138E148E158E168E15
:1023C000178E158214821782168220E03BE440E0CB
:1023D00050E060E074E284EF90E00C9442138AE0F5
:1023E00090E00E94731381E892E00E94DD028AE08F
:1023F00090E00E9473136091820570918305809133
:102400008405909185050E94870289E792E00E94E9
:10241000DD02609186057091870580918805909115
:1024200089050E9487028EE692E00E94DD0260919B
:102430008A0570918B0580918C0590918D050E9485
:10244000870284E692E00E94DD028AE090E00E942A
:1024500073138091860590918705A0918805B091AE
:102460008905892B8A2B8B2B79F083E094E00E94DD
:10247000DD028AE090E00E9473130E947A1380913B
:1024800086059091870508958DE094E00E94DD0215
:10249000F0CF20916C0530916D058217930790F471
:1024A000E0916E05F0916F058E0F9F1FFC01349730
:1024B000408151814230510528F04217530710F4F2
:1024C000CA01089580E090E008950F931F93CF9381
:1024D000DF93009771F18C010C5F1F4F98012370FF
:1024E0003327232B19F007968C010C7F609106028D
:1024F00070910702C0916C05D0916D05CB018C1BCA
:102500009D0B80179107E0F0E0916E05F0916F054B
:10251000EC0FFD1F118210820C0F1D1F10936D0513
:1025200000936C05CE010496DF91CF911F910F911E
:10253000089580E090E0DF91CF911F910F91089571
:102540007058600F711F70930702609306028091AC
:102550006E0590916F050E948A1790936F05809386
:102560006E05009731F3FC01D3CF009761F1843001
:10257000910530F140916C0550916D0584179507D8
:10258000F8F464307105E0F064177507C8F4A091A1
:102590006E05B0916F05FD01E80FF91F349720819A
:1025A00031812417350760F42115310571F0FD01E3
:1025B000E20FF31F34972081318124173507A0F3F0
:1025C00080E090E00895CB010895718360830895C1
:1025D0008430910510F00C94491280E090E0089549
:1025E000CF93DF93EC01892B19F0C430D10520F48F
:1025F000CE01DF91CF910895CE010E94491200973C
:10260000B9F3EC01F2CF8430910570F020916C05A4
:1026100030916D058217930738F420916E05309143
:102620006F05820F931F089580E090E008958091D8
:1026300006029091070220916C0530916D05821B76
:10264000930B089580916C0590916D050497089502
:1026500084E090E090936D0580936C05089584E08C
:1026600090E090936D0580936C0580916E0590913C
:102670006F05009731F00E94F21610926F051092CC
:102680006E0508950F931F9389019A01000F111F82
:10269000221F331F000F111F221F331F000F111F96
:1026A000221F331F600F711F821F931F000F111F06
:1026B000221F331FA90198012150310941095109F5
:1026C0000E94D6133093C5002093C400E1ECF0E0E3
:1026D000808188608083E2ECF0E080818E6080837E
:1026E0001F910F9108959091C00095FFFCCF8093AA
:1026F000C60008958091C00085FFFCCF83E58093DC
:10270000C6008091C00085FFFCCF84E58093C600A1
:102710008091C00085FFFCCF8FE48093C60080913C
:10272000C00085FFFCCF80E58093C6008091C0008B
:1027300085FFFCCF83E58093C6008091C00085FFB4
:10274000FCCF84E58093C6008091C00085FFFCCF5C
:102750008FE48093C6008091C00085FFFCCF80E5A8
:102760008093C6008091C00085FFFCCF83E58093F5
:10277000C6008091C00085FFFCCF84E58093C60031
:102780008091C00085FFFCCF8FE48093C6008091CC
:10279000C00085FFFCCF80E58093C6008091C0001B
:1027A00085FFFCCF8AE08093C6000895A1E21A2E2F
:1027B000AA1BBB1BFD010DC0AA1FBB1FEE1FFF1FE5
:1027C000A217B307E407F50720F0A21BB30BE40B35
:1027D000F50B661F771F881F991F1A9469F760957C
:1027E0007095809590959B01AC01BD01CF01089536
:1027F000052E97FB1EF400940E940F1457FD07D07E
:102800000E94D61307FC03D04EF40C940F1450957D
:102810004095309521953F4F4F4F5F4F08959095CC
:102820008095709561957F4F8F4F9F4F0895EE0F64
:10283000FF1F881F8BBF0790F691E02D1994505809
:10284000BB27AA270E9437140C94B1150E94A31528
:1028500038F00E94AA1520F039F49F3F19F426F4AD
:102860000C94A0150EF4E095E7FB0C949A15E92F53
:102870000E94C21558F3BA176207730784079507B9
:1028800020F079F4A6F50C94E4150EF4E0950B2EE7
:10289000BA2FA02D0B01B90190010C01CA01A001B2
:1028A0001124FF27591B99F0593F50F4503E68F10D
:1028B0001A16F040A22F232F342F4427585FF3CF4E
:1028C000469537952795A795F0405395C9F77EF41F
:1028D0001F16BA0B620B730B840BBAF09150A1F068
:1028E000FF0FBB1F661F771F881FC2F70EC0BA0FEE
:1028F000621F731F841F48F4879577956795B79576
:10290000F7959E3F08F0B0CF9395880F08F0992770
:10291000EE0F9795879508950E94761508F481E04B
:1029200008950E94A5140C94B1150E94AA1558F0A0
:102930000E94A31540F029F45F3F29F00C949A15EA
:1029400051110C94E5150C94A0150E94C21568F362
:102950009923B1F3552391F3951B550BBB27AA2758
:1029600062177307840738F09F5F5F4F220F331F92
:10297000441FAA1FA9F335D00E2E3AF0E0E832D05A
:1029800091505040E695001CCAF72BD0FE2F29D05D
:10299000660F771F881FBB1F261737074807AB072F
:1029A000B0E809F0BB0B802DBF01FF2793585F4FA4
:1029B0003AF09E3F510578F00C949A150C94E51569
:1029C0005F3FE4F3983ED4F3869577956795B79586
:1029D000F7959F5FC9F7880F911D9695879597F991
:1029E0000895E1E0660F771F881FBB1F621773070A
:1029F0008407BA0720F0621B730B840BBA0BEE1F1F
:102A000088F7E09508950E940A156894B1110C9416
:102A1000E51508950E94CA1588F09F5798F0B92FC0
:102A20009927B751B0F0E1F0660F771F881F991F03
:102A30001AF0BA95C9F714C0B13091F00E94E415AC
:102A4000B1E008950C94E415672F782F8827B85FBC
:102A500039F0B93FCCF3869577956795B395D9F75B
:102A60003EF490958095709561957F4F8F4F9F4F65
:102A70000895E89409C097FB3EF490958095709571
:102A800061957F4F8F4F9F4F9923A9F0F92F96E9BA
:102A9000BB279395F695879577956795B795F1112F
:102AA000F8CFFAF4BB0F11F460FF1BC06F5F7F4FCC
:102AB0008F4F9F4F16C0882311F096E911C07723DE
:102AC00021F09EE8872F762F05C0662371F096E8E7
:102AD000862F70E060E02AF09A95660F771F881FB6
:102AE000DAF7880F9695879597F90895990F00085A
:102AF000550FAA0BE0E8FEEF16161706E807F907D0
:102B0000C0F012161306E407F50798F0621B730B6A
:102B1000840B950B39F40A2661F0232B242B252BEB
:102B200021F408950A2609F4A140A6958FEF811D8E
:102B3000811D089597F99F6780E870E060E008952F
:102B40009FEF80EC089500240A94161617061806C5
:102B50000906089500240A941216130614060506A1
:102B60000895092E0394000C11F4882352F0BB0F32
:102B700040F4BF2B11F460FF04C06F5F7F4F8F4F95
:102B80009F4F089557FD9058440F551F59F05F3FD0
:102B900071F04795880F97FB991F61F09F3F79F07F
:102BA00087950895121613061406551FF2CF469501
:102BB000F1DF08C0161617061806991FF1CF869583
:102BC0007105610508940895E894BB276627772767
:102BD000CB0197F908950E94761508F48FEF0895B8
:102BE0000E9403160C94B1150E94A31538F00E94A0
:102BF000AA1520F0952311F00C949A150C94A015A9
:102C000011240C94E5150E94C21570F3959FC1F331
:102C1000950F50E0551F629FF001729FBB27F00D8A
:102C2000B11D639FAA27F00DB11DAA1F649F6627DF
:102C3000B00DA11D661F829F2227B00DA11D621F2E
:102C4000739FB00DA11D621F839FA00D611D221FE8
:102C5000749F3327A00D611D231F849F600D211DCC
:102C6000822F762F6A2F11249F5750409AF0F1F04F
:102C700088234AF0EE0FFF1FBB1F661F771F881FB8
:102C800091505040A9F79E3F510580F00C949A1541
:102C90000C94E5155F3FE4F3983ED4F38695779561
:102CA0006795B795F795E7959F5FC1F7FE2B880F5E
:102CB000911D9695879597F90895CF93DF9382306C
:102CC000910510F482E090E0E091B005F091B1053B
:102CD00020E030E0C0E0D0E0309711F14081518138
:102CE00048175907C0F04817590761F4828193814A
:102CF000209719F09B838A832BC09093B105809312
:102D0000B00526C02115310519F04217530718F4F4
:102D10009A01BE01DF01EF010280F381E02DDCCFDB
:102D20002115310509F1281B390B2430310590F4A8
:102D300012968D919C9113976115710521F0FB01FD
:102D40009383828304C09093B1058093B005FD0105
:102D5000329644C0FD01E20FF31F819391932250FC
:102D600031092D933C933AC02091AE053091AF05C7
:102D7000232B41F420910202309103023093AF05DE
:102D80002093AE05209100023091010221153105FA
:102D900041F42DB73EB74091040250910502241B27
:102DA000350BE091AE05F091AF05E217F307A0F403
:102DB0002E1B3F0B2817390778F0AC014E5F5F4F91
:102DC0002417350748F04E0F5F1F5093AF0540930F
:102DD000AE058193919302C0E0E0F0E0CF01DF9176
:102DE000CF9108950F931F93CF93DF93009709F42A
:102DF0008CC0FC013297138212820091B0051091B1
:102E0000B1050115110581F420813181820F931FD5
:102E10002091AE053091AF052817390779F5F09369
:102E2000AF05E093AE0571C0D80140E050E0AE17A9
:102E3000BF0750F412962D913C911397AD012115C7
:102E4000310509F1D901F3CF9D01DA0133832283E2
:102E500060817181860F971F8217930769F4EC01D7
:102E600028813981260F371F2E5F3F4F3183208302
:102E70008A819B8193838283452B29F4F093B1054A
:102E8000E093B00542C01396FC93EE931297ED01C8
:102E9000499159919E01240F351FE217F30771F4F0
:102EA00080819181840F951F029611969C938E9339
:102EB0008281938113969C938E931297E0E0F0E0C9
:102EC000D80112968D919C911397009719F0F801F3
:102ED0008C01F6CF8D919C9198012E5F3F4F820F10
:102EE000931F2091AE053091AF052817390769F47B
:102EF000309729F41092B1051092B00502C01382E8
:102F000012821093AF050093AE05DF91CF911F9110
:102F10000F9108956F927F928F929F92AF92BF927E
:102F2000CF92DF92EF92FF920F931F93CF93DF9395
:102F3000EC01009789F4CB01DF91CF911F910F91A4
:102F4000FF90EF90DF90CF90BF90AF909F908F90C9
:102F50007F906F900C945D16FC01E60FF71F9C01AB
:102F600022503109E217F30708F4ACC0D9010D91E2
:102F70001C91119706171707B0F00530110508F4DA
:102F80009FC0C80104978617970708F499C002509C
:102F90001109061B170B019311936D937C93CF01BD
:102FA0000E94F2168DC05B01A01AB10A4C01800E7E
:102FB000911EA091B005B091B10540E050E0E12C28
:102FC000F12C109709F44AC0A815B905D1F56D90F8
:102FD0007C901197630182E0C80ED11CCA14DB04F7
:102FE00080F1A3014A195B096A0182E0C80ED11C75
:102FF0001296BC9012971396AC91B5E0CB16D10403
:1030000040F0B282A38351834083D9016D937C93B6
:103010000AC00E5F1F4FC301800F911FF9019183FA
:103020008083EB2DFA2FE114F10431F0D7011396D0
:10303000FC93EE93129744C0F093B105E093B00572
:103040003FC08D919C9111974817590708F4AC0126
:103050007D0112960D90BC91A02DB3CF8091AE054D
:103060009091AF0588159905E1F446175707C8F404
:103070008091000290910102009741F48DB79EB7B4
:103080004091040250910502841B950BE817F90743
:10309000C8F4F093AF05E093AE05F9017183608346
:1030A0000FC0CB010E945D167C01009759F0A8016A
:1030B000BE010E94BA18CE010E94F216C70104C0D8
:1030C000CE0102C080E090E0DF91CF911F910F917F
:1030D000FF90EF90DF90CF90BF90AF909F908F9038
:1030E0007F906F900895DC012D923D924D925D92FC
:1030F0006D927D928D929D92AD92BD92CD92DD9218
:10310000ED92FD920D931D93CD93DD930F90FF9162
:10311000EF918DB78D938EB78D938FB78D93ED9380
:10312000FD93882799270D9221C0DC01CB018130C6
:103130009105811D2D903D904D905D906D907D90FD
:103140008D909D90AD90BD90CD90DD90ED90FD90D7
:103150000D911D91CD91DD91ED91FD910D90F89422
:10316000FEBF0FBEEDBFED91FD910D90EF93FF936C
:103170000F920895FB01DC0102C001900D924150B5
:0A3180005040D8F70895F894FFCFEF
:10318A000000B20520000400100440044F0460044B
:10319A008404A404B904D504F304140535052B03E7
:1031AA00190315030903746573745F5468696E67BC
:1031BA00732E6300746573745F736F6D65746869E9
:1031CA006E6700302E3030303030302E2E2E0020F8
:1031DA00417267756D656E74200046756E63746919
:1031EA006F6E20002049676E6F726564200020466A
:1031FA0061696C757265732000205465737473205D
:10320A00002D2D2D2D2D2D2D2D2D2D2D2D2D2D2D11
:10321A002D2D2D2D2D2D2D2D00556E6974792036CD
:10322A00342D62697420537570706F72742044690A
:10323A007361626C656400556E69747920446F75B8
:10324A00626C6520507265636973696F6E204469A8
:10325A007361626C656400556E69747920466C6F9F
:10326A006174696E6720506F696E74204469736176
:10327A00626C656400496E76616C696420466C6FA5
:10328A0061742054726169740044657465726D6971
:10329A006E617465004E614E004E656761746976B1
:1032AA006520496E66696E69747900496E66696E51
:1032BA00697479004E6F7420002041637475616CE3
:1032CA0020706F696E74657220776173204E554C59
:1032DA004C0020457870656374656420706F696E70
:1032EA0074657220746F206265204E554C4C002024
:1032FA00596F752041736B6564204D6520546F20AA
:10330A00436F6D70617265204E6F7468696E672CC9
:10331A002057686963682057617320506F696E741B
:10332A006C6573732E002056616C756573204E6F41
:10333A00742057697468696E2044656C7461200052
:10334A00204D656D6F7279204D69736D6174636884
:10335A002E002042797465200020456C656D656EEB
:10336A0074200020576173200020457870656374CB
:10337A00656420002E20004E554C4C0049474E4FA4
:10338A005245004641494C0050415353004F4B00AF
:10339A0046756E6374696F6E2063616C6C65642038
:1033AA007769746820756E657870656374656420E2
:1033BA00617267756D656E742076616C75652E0035
:1033CA004578706563746564204E554C4C2E0050E8
:1033DA006F696E746572206973204E554C4C2E00CD
:1033EA0052657475726E5468727550747220636196
:1033FA006C6C6564206265666F72652045787065DD
:10340A0063742E0049676E6F72654172672063614B
:10341A006C6C6564206265666F72652045787065BC
:10342A0063742E0043616C6C6564206F7574206F41
:10343A0066206F726465722E0043616C6C6564204D
:10344A006C61746572207468616E2065787065635A
:10345A007465642E0043616C6C6564206561726CEE
:10346A00696572207468616E206578706563746539
:10347A00642E0043616C6C6564206C657373207400
:10348A00696D6573207468616E2065787065637410
:10349A0065642E0043616C6C6564206D6F726520F3
:1034AA0074696D6573207468616E206578706563F0
:1034BA007465642E00434D6F636B206861732072DC
:1034CA00756E206F7574206F66206D656D6F7279E9
:1034DA002E20506C6561736520616C6C6F6361743A
:0834EA0065206D6F72652E0074
:00000001FF
