:100000000C9472000C947E000C947E000C947E0084
:100010000C947E000C947E000C947E000C947E0068
:100020000C947E000C947E000C947E000C947E0058
:100030000C947E000C947E000C947E000C947E0048
:100040000C947E000C947E000C947E000C947E0038
:100050000C947E000C947E000C947E000C947E0028
:100060000C947E000C947E000C947E000C947E0018
:100070000C947E000C947E000C947E000C947E0008
:100080000C947E000C947E000C947E000C947E00F8
:100090000C947E000C947E000C947E000C947E00E8
:1000A0000C947E000C947E000C947E000C947E00D8
:1000B0000C947E000C947E000C947E000C947E00C8
:1000C0000C947E000C947E000C947E000C947E00B8
:1000D0000C947E000C947E000C947E000C947E00A8
:1000E0000C947E0011241FBECFEFD1E2DEBFCDBF46
:1000F00000E00CBF0E9480000C94D4010C9400001E
:1001000020E03BE440E050E060E074E284EF90E007
:100110000E941E0184E30E944F0182E30E944F016E
:100120008AE00E944F012FEF83ED90E32150804041
:100130009040E1F700C0000082E30E944F0184E399
:100140000E944F018AE00E944F012FEF83ED90E360
:10015000215080409040E1F700C0000084E30E94FD
:100160004F0182E30E944F018AE00E944F012FEF6E
:1001700083ED90E3215080409040E1F700C0000003
:1001800082E30E944F0184E30E944F018AE00E94B3
:100190004F012FEF83ED90E3215080409040E1F735
:1001A00000C0000084E30E944F0182E30E944F01DF
:1001B0008AE00E944F012FEF83ED90E321508040B1
:1001C0009040E1F700C0000082E30E944F0184E309
:1001D0000E944F018AE00E944F012FEF83ED90E3D0
:1001E000215080409040E1F700C0000083E50E946C
:1001F0004F0184E50E944F018FE40E944F0180E58A
:100200000E944F0183E50E944F0184E50E944F0147
:100210008FE40E944F0180E50E944F0183E50E9418
:100220004F0184E50E944F018FE40E944F0180E559
:100230000E944F018AE00E944F01FFCF0F931F934E
:1002400089019A01000F111F221F331F000F111F78
:10025000221F331F000F111F221F331F600F711F3A
:10026000821F931F000F111F221F331FA901980126
:1002700021503109410951090E94B2013093C50052
:100280002093C400E1ECF0E0808188608083E2ECA0
:10029000F0E080818E6080831F910F91089590918E
:1002A000C00095FFFCCF8093C60008958091C000E8
:1002B00085FFFCCF83E58093C6008091C00085FF59
:1002C000FCCF84E58093C6008091C00085FFFCCF01
:1002D0008FE48093C6008091C00085FFFCCF80E54D
:1002E0008093C6008091C00085FFFCCF83E580939A
:1002F000C6008091C00085FFFCCF84E58093C600D6
:100300008091C00085FFFCCF8FE48093C600809170
:10031000C00085FFFCCF80E58093C6008091C000BF
:1003200085FFFCCF83E58093C6008091C00085FFE8
:10033000FCCF84E58093C6008091C00085FFFCCF90
:100340008FE48093C6008091C00085FFFCCF80E5DC
:100350008093C6008091C00085FFFCCF8AE0809327
:10036000C6000895A1E21A2EAA1BBB1BFD010DC0F9
:10037000AA1FBB1FEE1FFF1FA217B307E407F50755
:1003800020F0A21BB30BE40BF50B661F771F881F31
:10039000991F1A9469F760957095809590959B01C7
:0C03A000AC01BD01CF010895F894FFCF1F
:00000001FF
