:100000000C9482000C94A3000C94A3000C94A30005
:100010000C94A3000C94A3000C94A3000C94A300D4
:100020000C94A3000C94A3000C94A3000C94A300C4
:100030000C94A3000C94A3000C94A3000C94A300B4
:100040000C94A3000C94A3000C94A3000C94A300A4
:100050000C94A3000C94A3000C94A3000C94A30094
:100060000C94A3000C94A3000C94A3000C94A30084
:100070000C94A3000C94A3000C94A3000C94A30074
:100080000C94A3000C94A3000C94A3000C94A30064
:100090000C94A3000C94A3000C94A3000C94A30054
:1000A0000C94A3000C94A3000C94A3000C94A30044
:1000B0000C94A3000C94A3000C94A3000C94A30034
:1000C0000C94A3000C94A3000C94A3000C94A30024
:1000D0000C94A3000C94A3000C94A3000C94A30014
:1000E0000C94A300F00BF00BCC0BCC0BBC0BBC0B9B
:1000F000130C130C0C94F00B0C94CC0B0C94BC0B49
:100100000C94130C11241FBECFEFD1E2DEBFCDBF84
:1001100000E00CBF15E0A0E0B2E0E4EDFCE200E09E
:100120000BBF02C007900D92A036B107D9F72DE0A2
:10013000A0E6B5E001C01D92A83AB207E1F70E941F
:10014000A9000C9468160C9400000E9478110C947D
:100150007711CF93DF93CDB7DEB78EE192E00E94A7
:10016000C311E0E7FDE08CE292E09383828383E0B9
:1001700090E0A0E0B0E080879187A287B387848574
:100180009585A685B7850196A11DB11D84879587A4
:10019000A687B78780E99DE00E942116892B69F028
:1001A00080E99DE00E942116892B61F00E94D4060F
:1001B0000E94EF11DF91CF9108950E9477110E9464
:1001C000E500EECF0E947811F1CFAF92CF92DF928F
:1001D000EF92FF920F931F9384E2A82E95E0C92E11
:1001E000D12CE12CF12C00E010E021E030E040E0E7
:1001F00050E061E070E080E090E00E94C5071F9150
:100200000F91FF90EF90DF90CF90AF9008954F92B5
:100210005F926F927F928F929F92AF92BF92CF9296
:10022000DF92EF92FF920F931F93CF932B013C012C
:1002300049015A0167017801C501B4010E94E31325
:100240009B01AC010E945014A5019401882309F47C
:1002500044C0C501B4010E945014811144C0A701DB
:100260009601C701B6010E94E3139B01AC010E94F5
:100270005014811167C0A5019401C701B6010E9405
:10028000E3134B015C0120E030E0A9010E9450140F
:1002900087FD53C020E030E0A901C301B2010E94F4
:1002A000501487FD45C0A5019401C501B4010E9409
:1002B0005014882321F180E090E0CF911F910F919D
:1002C000FF90EF90DF90CF90BF90AF909F908F9076
:1002D0007F906F905F904F900895C501B4010E9488
:1002E0005014882341F2A7019601C701B6010E946C
:1002F0005014882309F4BFCF81E090E0DECFA50140
:100300009401C501B4010E94E3139B01AC010E945A
:1003100050148111D0CFA5019401C301B2010E94F4
:100320005014881F8827881F91E0892790E0C5CF47
:1003300077FA709477F87094B6CFB7FAB094B7F8AC
:10034000B094A8CFA7019601C701B6010E9450142E
:10035000811191CF20E030E0A901C501B4010E94D4
:100360005014881F8827881F91E0C82FC92720E0D4
:1003700030E0A901C701B6010E945014881F8827E8
:10038000881FC813B9CF77CF4F925F926F927F9239
:100390008F929F92AF92BF92CF92DF92EF92FF9295
:1003A0000F931F93CF93DF931F921F92CDB7DEB7AA
:1003B0006B017C0149015A018EE290E00E943713E3
:1003C000181419041A041B045CF58AE0482E512CF9
:1003D000612C712C04C0232B242B252B09F1C70180
:1003E000B601A50194010E94BC13182F092FC90161
:1003F000C09669837A830E9437136981C62E7A81F9
:10040000D72EE12EF02EC501B401A30192010E9466
:10041000BC1349015A01C114D104E104F104D9F615
:100420000F900F90DF91CF911F910F91FF90EF9060
:10043000DF90CF90BF90AF909F908F907F906F9004
:100440005F904F9008954F925F926F927F928F923C
:100450009F92AF92BF92CF92DF92EF92FF924B01A9
:100460005C01C12CD12C7601C3948AE088169104DA
:10047000A104B104E8F0CC0CDD1CEE1CFF1CD7017C
:10048000C601880F991FAA1FBB1F880F991FAA1F9B
:10049000BB1FC80ED91EEA1EFB1EC501B401A70171
:1004A00096010E949A132A3031054105510518F72B
:1004B0008AE0482E512C612C712CC501B401A70192
:1004C00096010E949A13CA01B901A30192010E94E8
:1004D0009A1380E3860F90E00E943713C701B6019C
:1004E000A30192010E949A1369017A01232B242B04
:1004F000252B19F7FF90EF90DF90CF90BF90AF9032
:100500009F908F907F906F905F904F900895CF92C3
:10051000DF92EF92FF926B017C0197FD08C0C7014B
:10052000B601FF90EF90DF90CF900C9423028DE204
:1005300090E00E943713F094E094D094C094C11CD2
:10054000D11CE11CF11CC701B601FF90EF90DF90B8
:10055000CF900C942302CF92DF92EF92FF92CF9331
:100560006B017C01C42F493030F0C8E006C0805DCB
:1005700090E00E943713CC23D1F0C1508C2F880F0C
:10058000880FA701960104C0569547953795279582
:100590008A95D2F7DA01C9018F7099278A309105BF
:1005A00034F3895C90E00E943713C111E6CFCF91FC
:1005B000FF90EF90DF90CF900895CF93DF93EC0101
:1005C000892BF1F098819923D9F080EE890F8F352E
:1005D000D0F09D3041F19A30E1F08CE590E00E943E
:1005E000371388E790E00E943713688170E080E05D
:1005F00090E042E00E94AB02219698819111E5CFF4
:10060000DF91CF910895892F90E00E9437132196B2
:10061000F4CF8CE590E00E9437138EE690E00E94C4
:1006200037132196EACF8CE590E00E94371382E7DA
:1006300090E00E9437132196E0CFCF93DF9300D054
:100640001F92CDB7DEB749835A836B837C830E94A8
:10065000DD028AE390E00E94371349815A816B8161
:100660007C81CB01BA010E9487028AE390E00E945C
:1006700037138091720D9091730D0E94DD028AE311
:1006800090E00F900F900F900F90DF91CF910C940E
:100690003713AB01BC018091700D9091710D0E94D8
:1006A0001D038BEF93E00E94DD028AE390E00C943F
:1006B0003713CF93DF93009771F1EC018CEE93E049
:1006C0000E94DD028091740D9091750D892BF1F0DF
:1006D00082E592E00E94DD028091740D9091750D8B
:1006E0000E94DD028091760D9091770D892B51F05B
:1006F00087E492E00E94DD028091760D9091770D63
:100700000E94DD028CEE93E00E94DD02CE01DF91BB
:10071000CF910C94DD02DF91CF9108950F931F9339
:10072000FB018617970731F0BA01A901892BA9F0BF
:10073000EF2B29F080E090E01F910F910895CB01FD
:10074000BA010E94490381E393E00E94DD02C801DF
:100750000E94590381E090E0EFCFCB01BA010E94E3
:1007600049038AE493E00E94DD02C8010E94590314
:1007700081E090E0E1CF0F931F93CF93DF93EC01E3
:100780008B0181EE93E00E94DD02209761F087E209
:1007900090E00E943713CE010E94DD0287E290E0D4
:1007A0000E94371304C08FEE93E00E94DD028BEDB0
:1007B00093E00E94DD020115110579F087E290E0D7
:1007C0000E943713C8010E94DD0287E290E0DF91AA
:1007D000CF911F910F910C9437138FEE93E0DF911F
:1007E000CF911F910F910C94DD028F929F92AF9247
:1007F000BF92EF92FF920F931F93CF93DF93EC0181
:100800004A015B01892BC9F198819923B1F17E01DD
:10081000452B462B472B29F530C09D3009F441C0AC
:100820009A30B1F18CE590E00E94371388E790E0B0
:100830000E943713688170E080E090E042E00E94FF
:10084000AB02219698819923C1F08E010E191F09E0
:10085000012E000C220B330B081519052A053B0548
:1008600060F480EE890F8F35C0F6892F90E00E94EA
:100870003713219698819111E8CFDF91CF911F9185
:100880000F91FF90EF90BF90AF909F908F90089541
:100890008CE590E00E9437138EE690E00E943713BB
:1008A000D0CF8CE590E00E94371382E790E00E9461
:1008B0003713C7CFCF92DF92EF92FF92CF9344FDD1
:1008C00020C045FD17C0C42F6B017C0180E390E080
:1008D0000E94371388E790E00E9437134C2F4F7027
:1008E000440FC701B601CF91FF90EF90DF90CF90FA
:1008F0000C94AB02CF91FF90EF90DF90CF900C94CF
:100900002302CF91FF90EF90DF90CF900C9487025D
:100910004F925F926F927F928F929F92AF92BF920F
:10092000CF92DF92EF92FF92CF93DF934B015C0166
:1009300029013A01C0E0D0E0C12C90E8D92EE12C89
:10094000F12C0CC081E390E00E943713F694E794F9
:10095000D794C7942196C031D10501F1D701C601C2
:1009600088219921AA21BB21892B8A2B8B2B29F144
:10097000D701C60184219521A621B721892B8A2B75
:100980008B2B01F780E390E00E943713F694E794F5
:10099000D794C7942196C031D10501F7DF91CF914B
:1009A000FF90EF90DF90CF90BF90AF909F908F908F
:1009B0007F906F905F904F90089588E590E00E943F
:1009C0003713C4CF4F925F926F927F928F929F9214
:1009D000AF92BF92CF92DF92EF92FF920F931F934D
:1009E000CF93DF93CDB7DEB728970FB6F894DEBF6D
:1009F0000FBECDBF6B017C0120E030E0A9010E9459
:100A0000501487FDB8C1A7019601C701B6010E9425
:100A1000501481118AC1A7019601C701B6010E9435
:100A2000E3139B01AC010E9450148823F1F043E0D2
:100A300050E060E070E083E293E028960FB6F8940F
:100A4000DEBF0FBECDBFDF91CF911F910F91FF9001
:100A5000EF90DF90CF90BF90AF909F908F907F905E
:100A60006F905F904F900C94F5032DEB37E346E0C9
:100A700055E3C701B6010E945014181654F020E047
:100A800030E0A901C701B6010E94AF1518160CF499
:100A900066C120E030E040E85FE4C701B6010E9493
:100AA000501487FDBCC020E030E040E251E4C701B3
:100AB000B6010E9455144B015C0128E23BE64EE66C
:100AC0005EE40E94AF1587FD64C1412C512C80E289
:100AD000682E81E4782E09E010E020E030E040E26A
:100AE00051E4C301B2010E94B4152B013C010F5F18
:100AF0001F4F9B01AC01C701B6010E9455144B0169
:100B00005C0128E23BE64EE65EE40E94AF1587FFFB
:100B1000E4CFC801012E000CAA0BBB0B89839A837A
:100B2000AB83BC8320E030E040E05FE3C501B4016B
:100B30000E94E4130E94C7142B013C010E94FF1481
:100B4000A50194010E94AF1518165CF5D301C201EE
:100B50000197A109B1098D839E83AF83B887BC013A
:100B6000CD010E94FF149B01AC01C501B4010E949C
:100B7000E31320E030E040E05FE30E9450141816D9
:100B800084F040FE0EC028E736E847E054E6C7018F
:100B9000B6010E94501487FF04C04D805E806F80B4
:100BA0007884C301B20120E031EE45EF55E00E94A8
:100BB000BC136B017C01C901C0960E94371320E869
:100BC00036E948E950E0C701B6010E94C40185E654
:100BD00090E00E9437138BE290E00E9437130930B7
:100BE000110509F4D1C069817A818B819C81289695
:100BF0000FB6F894DEBF0FBECDBFDF91CF911F912E
:100C00000F91FF90EF90DF90CF90BF90AF909F90AB
:100C10008F907F906F905F904F900C948702C701E8
:100C2000B6010E94CE142B013C010E94FD149B01D1
:100C3000AC01C701B6010E94E31320E034E244E7AF
:100C400059E40E94B41569837A838B839C8320E0E6
:100C500030E040E05FE30E94E4130E94C7144B01C0
:100C60005C010E94FF149B01AC0169817A818B8138
:100C70009C810E94501487FF2DC0D501C4010197AB
:100C8000A109B1098D839E83AF83B887BC01CD01D3
:100C90000E94FF149B01AC0169817A818B819C8148
:100CA0000E94E31320E030E040E05FE30E94501434
:100CB000181684F080FE0EC028E736E847E054E6B8
:100CC000C701B6010E94501487FF04C08D809E802A
:100CD000AF80B88490E4891692E499069FE0A90653
:100CE000B10409F43FC0C301B2010E94230220EA0B
:100CF00036E841E050E0C501B40128960FB6F894FB
:100D0000DEBF0FBECDBFDF91CF911F910F91FF903E
:100D1000EF90DF90CF90BF90AF909F908F907F909B
:100D20006F905F904F900C94C4018DE093E02896F3
:100D30000FB6F894DEBF0FBECDBFDF91CF911F91EC
:100D40000F91FF90EF90DF90CF90BF90AF909F906A
:100D50008F907F906F905F904F900C94DD028BE3AB
:100D600092E0E5CFAFEF4A1A5A0A6A0A7A0A812C52
:100D7000912C5401B8CF8DE290E00E943713F7FA1E
:100D8000F094F7F8F0943FCE80E390E00E943713A0
:100D90002ACF89E090E0A0E0B0E089839A83AB831A
:100DA000BC8309E010E0BECE80918C0D90918D0D3A
:100DB000A0918E0DB0918F0D892B8A2B8B2B99F5DD
:100DC0008091880D9091890DA0918A0DB0918B0D25
:100DD000892B8A2B8B2BD9F18091800D9091810DDD
:100DE000A091820DB091830D0196A11DB11D80933C
:100DF000800D9093810DA093820DB093830D10927E
:100E0000880D1092890D10928A0D10928B0D109200
:100E10008C0D10928D0D10928E0D10928F0D8AE018
:100E200090E00C9437138091840D9091850DA091E2
:100E3000860DB091870D0196A11DB11D8093840D83
:100E40009093850DA093860DB093870DD8CF4091D8
:100E5000780D5091790D60917A0D70917B0D809194
:100E6000700D9091710D0E941D0380E094E00E942E
:100E7000DD02C5CF2F923F924F925F926F927F9289
:100E80008F929F92AF92BF92CF92DF92EF92FF929A
:100E90000F931F93CF93DF9300D01F92CDB7DEB790
:100EA0004090880D5090890D60908A0D70908B0D48
:100EB000452846284728D1F440908C0D50908D0D40
:100EC00060908E0D70908F0D45284628472871F44C
:100ED00029013A014E245F246026712646225722BA
:100EE00068227922452846284728B9F40F900F90A8
:100EF0000F900F90DF91CF911F910F91FF90EF9086
:100F0000DF90CF90BF90AF909F908F907F906F9029
:100F10005F904F903F902F900895160167017801E0
:100F20002B013C01C501B40129833A834B835C83C7
:100F30000E94490381EE93E00E94DD0229813A81FB
:100F40004B815C81C301B2010E9488048BED93E068
:100F50000E94DD02A7019601C301B2010E9488042C
:100F6000C1010E94590381E090E0A0E0B0E08093CD
:100F7000880D9093890DA0938A0DB0938B0D61E03D
:100F800070E080E99DE00E9443164F925F926F925D
:100F90007F92AF92BF92CF92DF92EF92FF920F9328
:100FA0001F93CF93DF9300D01F92CDB7DEB7409051
:100FB000880D5090890D60908A0D70908B0D45289A
:100FC0004628472889F440908C0D50908D0D6090F4
:100FD0008E0D70908F0D45284628472829F46217FA
:100FE00073078407950799F40F900F900F900F9057
:100FF000DF91CF911F910F91FF90EF90DF90CF90F5
:10100000BF90AF907F906F905F904F900895C9828E
:10101000DA82EB82FC8269017A012B013C01698151
:101020007A818B819C810E94490381EE93E00E942A
:10103000DD024A2DC301B2010E945A048BED93E0F8
:101040000E94DD024A2DC701B6010E945A04C80160
:101050000E94590381E090E0A0E0B0E08093880D09
:101060009093890DA0938A0DB0938B0D61E070E091
:1010700080E99DE00E9443162F923F924F925F922B
:101080006F927F928F929F92AF92BF92CF92DF9298
:10109000EF92FF920F931F93CF93DF93CDB7DEB7FD
:1010A0002E970FB6F894DEBF0FBECDBF9A8389830B
:1010B0003B0119012A011E830D83AC828B82809132
:1010C000880D9091890DA0918A0DB0918B0D892B7F
:1010D0008A2B8B2B09F06FC080918C0D90918D0D18
:1010E000A0918E0DB0918F0D892B8A2B8B2B09F03F
:1010F00062C0232B242B252B09F4F4C029813A81CB
:101100002617370709F457C00D811E81A7019601E4
:1011100089819A810E948E03892B09F0D1C08C812C
:101120008F7090E0B201A10141505109610971092C
:101130004F83588769877A87B201A10122C0E9816C
:10114000FA81608171811B01770F44085508F30112
:10115000608171814B01770FAA08BB0828143904FC
:101160004A045B0409F057C06B81613009F44CC03C
:10117000680E791EBA01A901411551056105710575
:10118000D1F09A01AB012150310941095109813057
:10119000910551F18230910591F2E981FA81208027
:1011A000318042805380F30180809180A280B3809F
:1011B00084E090E0D3CF2E960FB6F894DEBF0FBE3A
:1011C000CDBFDF91CF911F910F91FF90EF90DF90F6
:1011D000CF90BF90AF909F908F907F906F905F90D7
:1011E0004F903F902F900895E981FA816081262EDB
:1011F000660F330844085508F3016081862E660F98
:101200009908AA08BB08AACFE981FA81E80FF91F5B
:10121000FA83E983ADCF32012101FC81F5FF20C0C3
:1012200084309105E9F0BC01660F771F660F771FC8
:10123000660F771F81E090E0A0E0B0E004C0880F67
:10124000991FAA1FBB1F6A95D2F70197A109B1097F
:10125000482259226A227B2288229922AA22BB2272
:10126000C701B6012B873C874D875E870E944903E3
:1012700081ED93E00E94DD022B853C854D855E85E6
:101280006F81788589859A85621B730B840B950B1A
:101290000E94230281EE93E00E94DD024C81C30193
:1012A000B2010E945A048BED93E00E94DD024C8152
:1012B000C501B4010E945A048D819E810E94590388
:1012C00081E090E0A0E0B0E08093880D9093890DDC
:1012D000A0938A0DB0938B0D61E070E080E99DE0F2
:1012E0000E944316C701B6010E94490387E693E0B6
:1012F0000E94DD028D819E810E945903E1CF2F92D1
:101300003F924F925F926F927F928F929F92AF9295
:10131000BF92CF92DF92EF92FF920F931F93CF93E2
:10132000DF93CDB7DEB72F970FB6F894DEBF0FBEB1
:10133000CDBF9A8389834B0129013A011D830C8318
:10134000CE82DF82E886F986AB828091880D90910B
:10135000890DA0918A0DB0918B0D892B8A2B8B2B37
:1013600009F068C080918C0D90918D0DA0918E0D2B
:10137000B0918F0D892B8A2B8B2B09F05BC0232B0F
:10138000242B252B09F4B2C089819A8186179707EF
:1013900009F450C00C811D812E813F8148855985FB
:1013A0000E948E03892B09F08FC0D301C2010197DF
:1013B000A109B1098A879B87AC87BD8714015301B6
:1013C000420105C081149104A104B10499F191E096
:1013D000891A9108A108B1083F862E86A4E02A0E3A
:1013E000311CE981FA814080518062807380AE8532
:1013F000BF85CD90DD90ED90FC902CEA35EC47E276
:1014000057E3C301B2010E94B41587017601A3011D
:1014100092010E940701892B31F1BB81B13091F615
:10142000E981FA813496FA83E98381149104A10455
:10143000B10469F62F960FB6F894DEBF0FBECDBF8C
:10144000DF91CF911F910F91FF90EF90DF90CF90A0
:10145000BF90AF909F908F907F906F905F904F90D4
:101460003F902F9008952E843F846E817F818885E0
:1014700099850E94490381ED93E00E94DD026A850F
:101480007B858C859D85681979098A099B090E944D
:10149000230281EE93E00E94DD02E981FA816081FE
:1014A0007181828193810E94E2048BED93E00E941E
:1014B000DD02D1016D917D918D919C910E94E2049C
:1014C0008C819D810E94590381E090E0A0E0B0E012
:1014D0008093880D9093890DA0938A0DB0938B0D06
:1014E00061E070E080E99DE00E944316C701B6010B
:1014F0000E94490387E693E00E94DD028C819D8172
:101500000E945903E1CF4F925F926F927F928F9228
:101510009F92AF92BF92CF92DF92EF92FF920F9382
:101520001F93CF93DF9300D01F92CDB7DEB74090CB
:10153000880D5090890D60908A0D70908B0D452814
:1015400046284728C1F440908C0D50908D0D609036
:101550008E0D70908F0D45284628472861F48982AA
:101560009A82AB82BC824701580129013A010E944C
:101570000701892BA9F00F900F900F900F90DF912A
:10158000CF911F910F91FF90EF90DF90CF90BF9080
:10159000AF909F908F907F906F905F904F90089545
:1015A00069817A818B819C810E94490381EE93E05D
:1015B0000E94DD02C301B2010E94E2048BED93E0C0
:1015C0000E94DD02C501B4010E94E204C6010E942E
:1015D000590381E090E0A0E0B0E08093880D909303
:1015E000890DA0938A0DB0938B0D61E070E080E9C6
:1015F0009DE00E9443162F923F924F925F926F920E
:101600007F928F929F92AF92BF92CF92DF92EF9292
:10161000FF920F931F93CF93DF93CDB7DEB72F9732
:101620000FB6F894DEBF0FBECDBFE8E0FE2EE6E1B8
:10163000F2E0DE01119601900D92FA94E1F7CE2CC2
:10164000C694D12C8090880D9090890DA0908A0D21
:10165000B0908B0D89288A288B2861F480908C0D9E
:1016600090908D0DA0908E0DB0908F0D89288A28B6
:101670008B28C9F02F960FB6F894DEBF0FBECDBFF2
:10168000DF91CF911F910F91FF90EF90DF90CF905E
:10169000BF90AF909F908F907F906F905F904F9092
:1016A0003F902F900895480159015A8749872B018F
:1016B0003C011E2D11708E2D90E08830910508F4AC
:1016C00054C081E0812790E0A0E0B0E02DEE32E050
:1016D0003A832983C12CD12C7601212F30E040E0C0
:1016E00050E082179307A407B50721F2C501B401A2
:1016F0001C873D874E875F870E94490381EE93E0F8
:101700000E94DD022C853D854E855F85232B242B91
:10171000252B09F4A6C0CC0CDD1CE1E0F0E0EC0FB9
:10172000FD1FEC0DFD1D808191810E94DD028BED7E
:1017300093E00E94DD02C301B2010E94E2048985A8
:101740009A850E94590381E090E0A0E0B0E0809388
:10175000880D9093890DA0938A0DB0938B0D61E055
:1017600070E080E99DE00E944316FC018827EE5856
:10177000FF4F8F4F0C94DB1301E01B86212C312C83
:10178000A3019201C301B2010E945014882331F1D8
:10179000802F9B85D101A1CFA3019201C301B2018A
:1017A0000E94E3139B01AC010E945014882309F4AA
:1017B00054C0A3019201C301B2010E9450148111CF
:1017C0004CC001E01B86212C312C20E030E0A90127
:1017D000C301B2010E94501487FDDACF00E0D8CFD8
:1017E000A3019201C301B2010E94E3139B01AC016A
:1017F0000E945014882389F1A3019201C301B20110
:101800000E945014811129C001E01B86212C312C2B
:1018100020E030E0A901C301B2010E94AF15181603
:101820000CF4B6CFDBCFA3019201C301B2010E9439
:10183000E3139B01AC010E94501481110EC001E022
:101840001B86212C312CA3019201C301B2010E94FD
:101850005014882309F49CCFC1CF80E090E0DC01D4
:101860003CCF8CE293E00E94DD0255CF2F923F9255
:101870004F925F926F927F928F929F92AF92BF92A0
:10188000CF92DF92EF92FF920F931F93CF93DF934C
:1018900000D01F92CDB7DEB74090880D5090890DD3
:1018A00060908A0D70908B0D45284628472899F541
:1018B00040908C0D50908D0D60908E0D70908F0D1E
:1018C00045284628472839F5EA8DE4FF3BC02E1508
:1018D0003F0540075107DCF1B1E0A0E0F0E0E0E0B7
:1018E00029013A014E185F08600A710A64157505EE
:1018F00086059705D8F54B2E5A2E6F2E7E2E4092D8
:10190000880D5092890D60928A0D70928B0D45283A
:101910004628472869F50F900F900F900F90DF91A0
:10192000CF911F910F91FF90EF90DF90CF90BF90DC
:10193000AF909F908F907F906F905F904F903F906F
:101940002F9008952E153F054007510728F6B1E066
:10195000A0E0F0E0E0E027013801421A530A640AEF
:10196000750A641575058605970528F2B0E0C3CFA2
:1019700016016701780129013A0169837A838B8313
:101980009C83C501B4010E9449038EE993E00E9443
:10199000DD024A8D69817A818B819C810E945A0483
:1019A00081EE93E00E94DD024A8DC301B2010E94E4
:1019B0005A048BED93E00E94DD024A8DC701B60107
:1019C0000E945A04C1010E94590381E090E0A0E006
:1019D000B0E08093880D9093890DA0938A0DB09309
:1019E0008B0D61E070E080E99DE00E9443164F920C
:1019F0005F926F927F92CF92DF92EF92FF920F935E
:101A00001F93CF93DF937C01DB016A014091880D26
:101A10005091890D60918A0D70918B0D452B462B4D
:101A2000472B09F045C040918C0D50918D0D609170
:101A30008E0D70918F0D452B462B472BC9F50097C6
:101A4000A9F1109769F0FC01ED0160E070E091915F
:101A500091113BC0FD01E60FF71F9081992341F1E1
:101A6000C901B801ED01412C512C3201439440923F
:101A7000880D5092890D60928A0D70928B0D0E9494
:101A80004903BE01C7010E94BB03C6010E9459035E
:101A90004092880D5092890D60928A0D70928B0D44
:101AA00061E070E080E99DE00E9443161097C1F666
:101AB000DF91CF911F910F91FF90EF90DF90CF902A
:101AC0007F906F905F904F90089559916F5F7F4F17
:101AD000951709F4BCCFC4CF4F925F926F927F925B
:101AE0008F929F92AF92BF92CF92DF92EF92FF922E
:101AF0000F931F93CF93DF93FC01EB014090880D70
:101B00005090890D60908A0D70908B0D4528462865
:101B1000472809F075C080918C0D90918D0DA09192
:101B20008E0DB0918F0D892B8A2B8B2B09F068C0FD
:101B3000C701B60149015A017F01309709F45EC01F
:101B40002097A1F0232B242B252B09F459C0DF016A
:101B5000AE01412C512C3201F2012D91211161C0B5
:101B6000EC0FFD1F2081222309F44AC0412C512C87
:101B7000320143944092880D5092890D60928A0DF3
:101B800070928B0D0E94490381EE93E00E94DD026A
:101B900087E290E00E943713B501A401C7010E94BB
:101BA000F50387E290E00E9437138BED93E00E94EB
:101BB000DD02209709F461C087E290E00E943713AC
:101BC000B501A401CE010E94F50387E290E00E94D6
:101BD0003713C8010E94590381E090E0A0E0B0E013
:101BE0008093880D9093890DA0938A0DB0938B0DEF
:101BF00061E070E080E99DE00E944316209711F5B6
:101C0000DF91CF911F910F91FF90EF90DF90CF90D8
:101C1000BF90AF909F908F907F906F905F904F900C
:101C20000895FA013191AF012313A0CFFFEF4F1AAE
:101C30005F0A6F0A7F0A481459046A047B0409F09A
:101C40008BCFDECFC12CD12C7601C394C092880DEE
:101C5000D092890DE0928A0DF0928B0D0E9449037B
:101C600081EE93E00E94DD028FEE93E00E94DD02A0
:101C70008BED93E00E94DD029FCF8FEE93E00E94F8
:101C8000DD02A7CF2F923F924F925F926F927F9289
:101C90008F929F92AF92BF92CF92DF92EF92FF927C
:101CA0000F931F93CF93DF93CDB7DEB728970FB66F
:101CB000F894DEBF0FBECDBF4090880D5090890DC7
:101CC00060908A0D70908B0D45284628472809F0B2
:101CD000ADC040908C0D50908D0D60908E0D709029
:101CE0008F0D45284628472809F0A0C03A2CCB8202
:101CF000DC82ED82FE821A83098369017A013B014D
:101D00002C01232B242B252B09F4B8C08617970709
:101D100009F48CC009811A812B813C814D815E813F
:101D20000E948E03892B09F05AC081E0A81609F49D
:101D3000A2C082018090880D9090890DA0908A0D9C
:101D4000B0908B0DB301A201412C512C3201332DE7
:101D5000FB0121903190BF01313009F488C0011599
:101D6000110509F44EC02114310489F0F801D101A4
:101D700080E090E038862F822191211170C02F8061
:101D80003884F101E80FF91F80818823E9F181E0AF
:101D900090E0A0E0B0E08093880D9093890DA0932F
:101DA0008A0DB0938B0D6B817C818D819E810E9409
:101DB0004903F2E0CF16D104E104F10440F081EDD3
:101DC00093E00E94DD02C301B2010E942302B1012F
:101DD000C8010E94BB0389819A810E94590381E056
:101DE00090E0A0E0B0E08093880D9093890DA093DF
:101DF0008A0DB0938B0D61E070E080E99DE00E9458
:101E000043162114310419F681149104A104B1047C
:101E100051F68FEF481A580A680A780A4E5F5F4FEA
:101E20004C145D046E047F0409F092CF28960FB61F
:101E3000F894DEBF0FBECDBFDF91CF911F910F9100
:101E4000FF90EF90DF90CF90BF90AF909F908F90DA
:101E50007F906F905F904F903F902F9008953D90AE
:101E60000196231509F488CF2F80388490CFFA018A
:101E70000081118174CF00E010E05CCF6B817C8128
:101E80008D819E810E94490387E693E00E94DD02D6
:101E900089819A810E945903A2CF2F923F924F923B
:101EA0005F926F927F928F929F92AF92BF92CF92EA
:101EB000DF92EF92FF920F931F93CF93DF93CDB7F3
:101EC000DEB768970FB6F894DEBF0FBECDBF9A831A
:101ED00089833B0119012A01EB82FC820D831E8359
:101EE000DC86CB868D869E86AF86B88A8091880DEB
:101EF0009091890DA0918A0DB0918B0D892B8A2B21
:101F00008B2B09F083C080918C0D90918D0DA09149
:101F10008E0DB0918F0D8F839887A987BA87892BF3
:101F20008A2B8B2B09F072C0EF28E02AE12A09F4F2
:101F3000EFC0232B242B252B09F4EAC0A981BA81F9
:101F4000A617B70709F462C00B851C852D853E8551
:101F50004F855889CD010E948E03892B09F0C3C09B
:101F60008B819C81AD81BE810197A109B109898BCB
:101F70009A8BAB8BBC8BD201C1010197A109B1092E
:101F80008D8B9E8BAF8BB88FCB80DC80ED80FE80FD
:101F900009811A8192E0291A310841085108F80193
:101FA000D3017EA481E0C81AD108E108F10890812C
:101FB0008C919813AAC09F012F5F3F4FCD010196CE
:101FC000B201A10112C09F012F5F3F4FCD010196C9
:101FD0004A015B0111E0811A9108A108B108008152
:101FE0001C9101132CC0B501A401F901DC014F3F84
:101FF0001FEF51076107710731F7711002C0E981C6
:10200000FA81C114D104E104F10461F668960FB6B7
:10201000F894DEBF0FBECDBFDF91CF911F910F911E
:10202000FF90EF90DF90CF90BF90AF909F908F90F8
:102030007F906F905F904F903F902F9008958F0109
:102040003D018D899E89AF89B88D841B950BA60BA8
:10205000B70B8F839887A987BA876D857E858F8513
:1020600098890E94490388EB93E00E94DD028B81EE
:102070009C81AD81BE810297A105B10570F081ED13
:1020800093E00E94DD0269897A898B899C896C19A9
:102090007D098E099F090E9423028AEC93E00E9429
:1020A000DD026F81788589859A850E94230281EE01
:1020B00093E00E94DD02D8016C9170E080E090E036
:1020C00041E40E945A048BED93E00E94DD02F3018B
:1020D000608170E080E090E041E40E945A048B85CA
:1020E0009C850E94590381E090E0A0E0B0E08093DD
:1020F000880D9093890DA0938A0DB0938B0D61E0AC
:1021000070E080E99DE00E9443168F013D01A5CF5C
:102110006D857E858F8598890E94490387E693E0C7
:102120000E94DD028B859C850E945903DCCF4130E3
:10213000A1F0423059F0609360057093610580937F
:1021400062059093630580E695E0089560936005CD
:102150007093610580E695E008956093600580E6E0
:1021600095E0089560936005709361058093620522
:102170009093630580E695E008950F931F93CF93A6
:10218000DF930091880D1091890D20918A0D309177
:102190008B0D012B022B032B61F400918C0D109100
:1021A0008D0D20918E0D30918F0D012B022B032B65
:1021B00029F0DF91CF911F910F910895EC0180914B
:1021C000700D9091710D0E941D038BEF93E00E94A2
:1021D000DD02209791F18AE390E00E94371380910D
:1021E000740D9091750D892BF1F082E592E00E94BB
:1021F000DD028091740D9091750D0E94DD02809139
:10220000760D9091770D892B51F087E492E00E9432
:10221000DD028091760D9091770D0E94DD028CEEAB
:1022200093E00E94DD028881803221F080E290E01C
:102230000E943713CE010E94DD0281E090E0A0E011
:10224000B0E08093880D9093890DA0938A0DB09390
:102250008B0D61E070E080E99DE00E9443160F93D2
:102260001F930091880D1091890D20918A0D309156
:102270008B0D012B022B032B61F400918C0D10911F
:102280008D0D20918E0D30918F0D012B022B032B84
:1022900019F01F910F9108958C018091700D90910C
:1022A000710D0E941D0384EF93E00E94DD02011571
:1022B000110559F08AE390E00E94371380E290E024
:1022C0000E943713C8010E94DD0281E090E0A0E087
:1022D000B0E080938C0D90938D0DA0938E0DB093F4
:1022E0008F0D61E070E080E99DE00E944316089543
:1022F0000895CF93DF931F921F92CDB7DEB79A83D5
:102300008983E0E7FDE073836283052E000C660B92
:10231000770B408751876287738784859585A6856B
:10232000B7850196A11DB11D84879587A687B787BC
:10233000158214821782168280E99DE00E94211680
:10234000892B69F080E99DE00E942116892B91F08C
:102350000E94D4060F900F90DF91CF9108950E94B4
:102360007711E981FA81199580E99DE00E94211693
:10237000892B71F70E9478110E94D4060F900F905C
:10238000DF91CF910895E0E7FDE091838083138290
:10239000128210861186128613861486158616867A
:1023A0001786108A118A128A138A148A158A168A45
:1023B000178A108E118E128E138E148E158E168E15
:1023C000178E158214821782168220E03BE440E0CB
:1023D00050E060E074E284EF90E00C9406138AE031
:1023E00090E00E94371389E792E00E94DD028AE0C4
:1023F00090E00E94371360917C0D70917D0D80916B
:102400007E0D90917F0D0E94870281E792E00E94ED
:10241000DD026091800D7091810D8091820D90910F
:10242000830D0E94870286E692E00E94DD026091A1
:10243000840D7091850D8091860D9091870D0E947D
:1024400087028CE592E00E94DD028AE090E00E9423
:1024500037138091800D9091810DA091820DB091E4
:10246000830D892B8A2B8B2B79F08BEF93E00E94C5
:10247000DD028AE090E00E9437130E943E138091B3
:10248000800D9091810D089585E094E00E94DD0219
:10249000F0CF009719F19C012C5F3F4FA9014370C9
:1024A0005527452B19F007969C012C7F80916405D8
:1024B0009091650544E058E0481B590B42175307BB
:1024C00068F0FC01EA59FA4F11821082280F391F77
:1024D00030936505209364050496089580E090E0AC
:1024E0000895009751F18430910520F140916405E1
:1024F0005091650584179507E8F464307105D0F0B4
:1025000064177507B8F4FC01EA59FA4F6A597A4F13
:102510003497208131812417350760F42115310566
:1025200071F0F901EA59FA4F34972081318124176B
:102530003507A0F380E090E00895CB01089566563A
:1025400075407183608308958430910598F02091DF
:102550006405309165058217930760F4FC01EE591C
:10256000FA4F808191818230910520F08217930784
:1025700008F4089580E090E008950097C9F0409134
:102580006405509165058430910590F08417950796
:1025900078F4FC01EE59FA4F208131812417350778
:1025A00038F42230310520F0C9018430910570F7EC
:1025B00008958430910550F02091640530916505AF
:1025C0008217930718F48A599A4F089580E090E093
:1025D0000895209164053091650584E098E0821BA0
:1025E000930B089580916405909165050497089573
:1025F00084E090E09093650580936405089584E0FD
:1026000090E0909365058093640508950F931F9360
:1026100089019A01000F111F221F331F000F111F84
:10262000221F331F000F111F221F331F600F711F46
:10263000821F931F000F111F221F331FA901980132
:1026400021503109410951090E949A133093C50064
:102650002093C400E1ECF0E0808188608083E2ECAC
:10266000F0E080818E6080831F910F91089590919A
:10267000C00095FFFCCF8093C60008958091C000F4
:1026800085FFFCCF83E58093C6008091C00085FF65
:10269000FCCF84E58093C6008091C00085FFFCCF0D
:1026A0008FE48093C6008091C00085FFFCCF80E559
:1026B0008093C6008091C00085FFFCCF83E58093A6
:1026C000C6008091C00085FFFCCF84E58093C600E2
:1026D0008091C00085FFFCCF8FE48093C60080917D
:1026E000C00085FFFCCF80E58093C6008091C000CC
:1026F00085FFFCCF83E58093C6008091C00085FFF5
:10270000FCCF84E58093C6008091C00085FFFCCF9C
:102710008FE48093C6008091C00085FFFCCF80E5E8
:102720008093C6008091C00085FFFCCF8AE0809333
:10273000C6000895A1E21A2EAA1BBB1BFD010DC005
:10274000AA1FBB1FEE1FFF1FA217B307E407F50761
:1027500020F0A21BB30BE40BF50B661F771F881F3D
:10276000991F1A9469F760957095809590959B01D3
:10277000AC01BD01CF010895052E97FB1EF4009416
:102780000E94D31357FD07D00E949A1307FC03D071
:102790004EF40C94D31350954095309521953F4FAE
:1027A0004F4F5F4F089590958095709561957F4F3D
:1027B0008F4F9F4F0895EE0FFF1F881F8BBF07900D
:1027C000F691E02D19945058BB27AA270E94FB13BD
:1027D0000C9475150E94671538F00E946E1520F054
:1027E00039F49F3F19F426F40C9464150EF4E09527
:1027F000E7FB0C945E15E92F0E94861558F3BA1773
:10280000620773078407950720F079F4A6F50C9406
:10281000A8150EF4E0950B2EBA2FA02D0B01B901CF
:1028200090010C01CA01A0011124FF27591B99F046
:10283000593F50F4503E68F11A16F040A22F232F52
:10284000342F4427585FF3CF469537952795A795A2
:10285000F0405395C9F77EF41F16BA0B620B730B49
:10286000840BBAF09150A1F0FF0FBB1F661F771FBA
:10287000881FC2F70EC0BA0F621F731F841F48F46F
:10288000879577956795B795F7959E3F08F0B0CFF8
:102890009395880F08F09927EE0F979587950895DF
:1028A0000E943A1508F481E008950E9469140C947E
:1028B00075150E946E1558F00E94671540F029F4B6
:1028C0005F3F29F00C945E1551110C94A9150C94DE
:1028D00064150E94861568F39923B1F3552391F38B
:1028E000951B550BBB27AA2762177307840738F07F
:1028F0009F5F5F4F220F331F441FAA1FA9F335D0DC
:102900000E2E3AF0E0E832D091505040E695001C8F
:10291000CAF72BD0FE2F29D0660F771F881FBB1F49
:10292000261737074807AB07B0E809F0BB0B802D27
:10293000BF01FF2793585F4F3AF09E3F510578F053
:102940000C945E150C94A9155F3FE4F3983ED4F304
:10295000869577956795B795F7959F5FC9F7880F27
:10296000911D9695879597F90895E1E0660F771F79
:10297000881FBB1F621773078407BA0720F0621B0A
:10298000730B840BBA0BEE1F88F7E09508950E9435
:10299000CE146894B1110C94A91508950E948E1557
:1029A00088F09F5798F0B92F9927B751B0F0E1F010
:1029B000660F771F881F991F1AF0BA95C9F714C0C0
:1029C000B13091F00E94A815B1E008950C94A815BB
:1029D000672F782F8827B85F39F0B93FCCF38695F9
:1029E00077956795B395D9F73EF490958095709556
:1029F00061957F4F8F4F9F4F0895E89409C097FBD3
:102A00003EF490958095709561957F4F8F4F9F4FC5
:102A10009923A9F0F92F96E9BB279395F695879509
:102A200077956795B795F111F8CFFAF4BB0F11F4CC
:102A300060FF1BC06F5F7F4F8F4F9F4F16C0882373
:102A400011F096E911C0772321F09EE8872F762FA9
:102A500005C0662371F096E8862F70E060E02AF0EA
:102A60009A95660F771F881FDAF7880F96958795D6
:102A700097F90895990F0008550FAA0BE0E8FEEFAB
:102A800016161706E807F907C0F012161306E40732
:102A9000F50798F0621B730B840B950B39F40A262B
:102AA00061F0232B242B252B21F408950A2609F409
:102AB000A140A6958FEF811D811D089597F99F670D
:102AC00080E870E060E008959FEF80EC08950024B6
:102AD0000A941616170618060906089500240A9483
:102AE00012161306140605060895092E0394000C09
:102AF00011F4882352F0BB0F40F4BF2B11F460FF98
:102B000004C06F5F7F4F8F4F9F4F089557FD9058C0
:102B1000440F551F59F05F3F71F04795880F97FBA1
:102B2000991F61F09F3F79F087950895121613065B
:102B30001406551FF2CF4695F1DF08C0161617068A
:102B40001806991FF1CF86957105610508940895BF
:102B5000E894BB2766277727CB0197F908950E9451
:102B60003A1508F48FEF08950E94C7150C94751557
:102B70000E94671538F00E946E1520F0952311F021
:102B80000C945E150C94641511240C94A9150E94E4
:102B9000861570F3959FC1F3950F50E0551F629F06
:102BA000F001729FBB27F00DB11D639FAA27F00DA6
:102BB000B11DAA1F649F6627B00DA11D661F829FCD
:102BC0002227B00DA11D621F739FB00DA11D621FB2
:102BD000839FA00D611D221F749F3327A00D611DCF
:102BE000231F849F600D211D822F762F6A2F1124B1
:102BF0009F5750409AF0F1F088234AF0EE0FFF1FE4
:102C0000BB1F661F771F881F91505040A9F79E3F3A
:102C1000510580F00C945E150C94A9155F3FE4F308
:102C2000983ED4F3869577956795B795F795E79590
:102C30009F5FC1F7FE2B880F911D9695879597F999
:102C40000895DC012D923D924D925D926D927D92A0
:102C50008D929D92AD92BD92CD92DD92ED92FD92BC
:102C60000D931D93CD93DD930F90FF91EF918DB751
:102C70008D938EB78D938FB78D93ED93FD938827AA
:102C800099270D9221C0DC01CB0181309105811D76
:102C90002D903D904D905D906D907D908D909D908C
:102CA000AD90BD90CD90DD90ED90FD900D911D917A
:102CB000CD91DD91ED91FD910D90F894FEBF0FBE89
:102CC000EDBFED91FD910D90EF93FF930F9208955D
:042CD000F894FFCFA6
:102CD40008043804470458047C049C04B104CD045B
:102CE400EB040C052D05230311030D030103746587
:102CF40073745F5468696E67732E630074657374CC
:102D04005F736F6D657468696E6700302E303030A4
:102D14003030302E2E2E0020417267756D656E7432
:102D2400200046756E6374696F6E20002049676EDB
:102D34006F7265642000204661696C75726573204A
:102D44000020546573747320002D2D2D2D2D2D2DF1
:102D54002D2D2D2D2D2D2D2D2D2D2D2D2D2D2D2D9F
:102D640000556E6974792036342D62697420537568
:102D740070706F72742044697361626C656400558D
:102D84006E69747920446F75626C65205072656356
:102D94006973696F6E2044697361626C6564005580
:102DA4006E69747920466C6F6174696E6720506F28
:102DB400696E742044697361626C656400496E765F
:102DC400616C696420466C6F61742054726169742B
:102DD4000044657465726D696E617465004E614E80
:102DE400004E6567617469766520496E66696E692F
:102DF400747900496E66696E697479004E6F742047
:102E0400002041637475616C20706F696E74657223
:102E140020776173204E554C4C00204578706563D3
:102E240074656420706F696E74657220746F2062BB
:102E340065204E554C4C0020596F752041736B65CD
:102E440064204D6520546F20436F6D70617265205E
:102E54004E6F7468696E672C2057686963682057E1
:102E6400617320506F696E746C6573732E00205605
:102E7400616C756573204E6F742057697468696E50
:102E84002044656C74612000204D656D6F7279205B
:102E94004D69736D617463682E00204279746520F6
:102EA4000020456C656D656E7420002057617320A9
:102EB4000020457870656374656420002E20004E00
:102EC400554C4C0049474E4F5245004641494C0031
:102ED40050415353004F4B0046756E6374696F6ED7
:102EE4002063616C6C6564207769746820756E6515
:102EF4007870656374656420617267756D656E745E
:102F04002076616C75652E00457870656374656420
:102F1400204E554C4C2E00506F696E7465722069BA
:102F240073204E554C4C2E0052657475726E546865
:102F340072755074722063616C6C6564206265669E
:102F44006F7265204578706563742E0049676E6FF3
:102F540072654172672063616C6C656420626566AA
:102F64006F7265204578706563742E0043616C6CE4
:102F74006564206F7574206F66206F726465722EAD
:102F84000043616C6C6564206C61746572207468C4
:102F9400616E2065787065637465642E0043616CAE
:102FA4006C6564206561726C696572207468616E19
:102FB4002065787065637465642E0043616C6C658C
:102FC40064206C6573732074696D65732074686123
:102FD4006E2065787065637465642E0043616C6C63
:102FE4006564206D6F72652074696D657320746803
:102FF400616E2065787065637465642E00434D6F5F
:10300400636B206861732072756E206F7574206F16
:1030140066206D656D6F72792E20506C65617365E5
:1030240020616C6C6F63617465206D6F72652E0036
:00000001FF
