:100000000C943C000C9459000C9459000C94590029
:100010000C9459000C9459000C9459000C945900FC
:100020000C9459000C9459000C9459000C945900EC
:100030000C9459000C9459000C9459000C945900DC
:100040000C9459000C9459000C9459000C945900CC
:100050000C9459000C9459000C9459000C945900BC
:100060000C9459000C945900A30BA30B7F0B7F0B2E
:100070006F0B6F0BC60BC60B11241FBECFEFD8E062
:10008000DEBFCDBF14E0A0E0B1E0EEE0F1E302C0DE
:1000900005900D92A836B107D9F724E0A8E6B4E0A0
:1000A00001C01D92A13BB207E1F70E945F000C94D2
:1000B00085180C9400000E942B110C942A11CF93E8
:1000C000DF93CDB7DEB786E291E00E947511E6E7D7
:1000D000F4E084E391E09383828383E090E0A0E006
:1000E000B0E080879187A287B38784859585A685B0
:1000F000B7850196A11DB11D84879587A687B7870F
:1001000086E994E00E940418892B69F086E994E05E
:100110000E940418892B61F00E9489060E94A11197
:10012000DF91CF9108950E942A110E949B00EECF8B
:100130000E942B11F1CFAF92CF92DF92EF92FF92FC
:100140000F931F9384E2A82E95E0C92ED12CE12CA9
:10015000F12C00E010E021E030E040E050E061E010
:1001600070E080E090E00E947A071F910F91FF906D
:10017000EF90DF90CF90AF9008954F925F926F9283
:100180007F928F929F92AF92BF92CF92DF92EF9227
:10019000FF920F931F93CF932B013C0149015A010A
:1001A00067017801C501B4010E94CF139B01AC0126
:1001B0000E943C14A5019401882309F444C0C501A0
:1001C000B4010E943C14811144C0A7019601C701EB
:1001D000B6010E94CF139B01AC010E943C14811117
:1001E00067C0A5019401C701B6010E94CF134B015E
:1001F0005C0120E030E0A9010E943C1487FD53C05F
:1002000020E030E0A901C301B2010E943C1487FD47
:1002100045C0A5019401C501B4010E943C14882386
:1002200021F180E090E0CF911F910F91FF90EF902E
:10023000DF90CF90BF90AF909F908F907F906F9006
:100240005F904F900895C501B4010E943C1488232B
:1002500041F2A7019601C701B6010E943C14882310
:1002600009F4BFCF81E090E0DECFA5019401C50184
:10027000B4010E94CF139B01AC010E943C14811178
:10028000D0CFA5019401C301B2010E943C14881F84
:100290008827881F91E0892790E0C5CF77FA70946E
:1002A00077F87094B6CFB7FAB094B7F8B094A8CFF7
:1002B000A7019601C701B6010E943C14811191CF9C
:1002C00020E030E0A901C501B4010E943C14881F60
:1002D0008827881F91E0C82FC92720E030E0A901B6
:1002E000C701B6010E943C14881F8827881FC813C5
:1002F000B9CF77CF4F925F926F927F928F929F92FA
:10030000AF92BF92CF92DF92EF92FF920F931F9323
:10031000CF93DF9300D0CDB7DEB76B017C014901ED
:100320005A018EE290E00E942513181419041A0451
:100330001B045CF58AE0482E512C612C712C04C002
:10034000232B242B252B09F1C701B601A50194010C
:100350000E94AA13182F092FC901C09669837A83B6
:100360000E9425136981C62E7A81D72EE12EF02EA8
:10037000C501B401A30192010E94AA1349015A01C7
:10038000C114D104E104F104D9F60F900F90DF916C
:10039000CF911F910F91FF90EF90DF90CF90BF9082
:1003A000AF909F908F907F906F905F904F90089547
:1003B0004F925F926F927F928F929F92AF92BF9275
:1003C000CF92DF92EF92FF924B015C01C12CD12CB6
:1003D0007601C3948AE088169104A104B104E8F080
:1003E000CC0CDD1CEE1CFF1CD701C601880F991F29
:1003F000AA1FBB1F880F991FAA1FBB1FC80ED91E9B
:10040000EA1EFB1EC501B401A70196010E948813D4
:100410002A3031054105510518F78AE0482E512C44
:10042000612C712CC501B401A70196010E948813AB
:10043000CA01B901A30192010E94881380E3860FCB
:1004400090E00E942513C701B601A30192010E940A
:10045000881369017A01232B242B252B19F7FF9090
:10046000EF90DF90CF90BF90AF909F908F907F9054
:100470006F905F904F900895CF92DF92EF92FF922E
:100480006B017C0197FD08C0C701B601FF90EF909A
:10049000DF90CF900C94D8018DE290E00E9425135C
:1004A000F094E094D094C094C11CD11CE11CF11CC8
:1004B000C701B601FF90EF90DF90CF900C94D80168
:1004C000CF92DF92EF92FF92CF936B017C01C42F0A
:1004D000493030F0C8E006C0805D90E00E942513EE
:1004E000CC23D1F0C1508C2F880F880FA701960123
:1004F00004C056954795379527958A95D2F7DA0126
:10050000C9018F7099278A30910534F3895C90E096
:100510000E942513C111E6CFCF91FF90EF90DF909D
:10052000CF900895CF93DF93EC01892BF1F0988160
:100530009923D9F080EE890F8F35D0F09D3041F1AD
:100540009A30E1F08CE590E00E94251388E790E076
:100550000E942513688170E080E090E042E00E94F4
:100560006002219698819111E5CFDF91CF91089596
:10057000892F90E00E9425132196F4CF8CE590E01E
:100580000E9425138EE690E00E9425132196EACF63
:100590008CE590E00E94251382E790E00E942513ED
:1005A0002196E0CFCF93DF9300D000D0CDB7DEB758
:1005B00049835A836B837C830E9492028AE390E092
:1005C0000E94251349815A816B817C81CB01BA013C
:1005D0000E943C028AE390E00E94251380917804F7
:1005E000909179040E9492028AE390E00F900F901C
:1005F0000F900F90DF91CF910C942513AB01BC01AC
:1006000080917604909177040E94D20283E093E077
:100610000E9492028AE390E00C942513CF93DF931B
:10062000009771F1EC0184EF92E00E9492028091B8
:100630007A0490917B04892BF1F08AE591E00E9485
:10064000920280917A0490917B040E9492028091A0
:100650007C0490917D04892B51F08FE491E00E94FD
:10066000920280917C0490917D040E94920284EF1A
:1006700092E00E949202CE01DF91CF910C949202FF
:10068000DF91CF9108950F931F93FB018617970772
:1006900031F0BA01A901892BA9F0EF2B29F080E0F4
:1006A00090E01F910F910895CB01BA010E94FE02C4
:1006B00089E392E00E949202C8010E940E0381E049
:1006C00090E0EFCFCB01BA010E94FE0282E592E0FA
:1006D0000E949202C8010E940E0381E090E0E1CFE7
:1006E0000F931F93CF93DF93EC018B0189EE92E080
:1006F0000E949202209761F087E290E00E94251309
:10070000CE010E94920287E290E00E94251304C06D
:1007100087EF92E00E94920283EE92E00E949202A2
:100720000115110579F087E290E00E942513C801B8
:100730000E94920287E290E0DF91CF911F910F918A
:100740000C94251387EF92E0DF91CF911F910F91C9
:100750000C9492028F929F92AF92BF92EF92FF926F
:100760000F931F93CF93DF93EC014A015B01892B19
:10077000C9F198819923B1F17E01452B462B472B76
:1007800029F530C09D3009F441C09A30B1F18CE5B3
:1007900090E00E94251388E790E00E94251368816D
:1007A00070E080E090E042E00E9460022196988133
:1007B0009923C1F08E010E191F09012E000C220B86
:1007C000330B081519052A053B0560F480EE890FE7
:1007D0008F35C0F6892F90E00E94251321969881CD
:1007E0009111E8CFDF91CF911F910F91FF90EF9082
:1007F000BF90AF909F908F9008958CE590E00E94FD
:1008000025138EE690E00E942513D0CF8CE590E072
:100810000E94251382E790E00E942513C7CFCF9254
:10082000DF92EF92FF92CF9344FD20C045FD17C0A9
:10083000C42F6B017C0180E390E00E94251388E7C0
:1008400090E00E9425134C2F4F70440FC701B60152
:10085000CF91FF90EF90DF90CF900C946002CF91FA
:10086000FF90EF90DF90CF900C94D801CF91FF9044
:10087000EF90DF90CF900C943C024F925F926F927A
:100880007F928F929F92AF92BF92CF92DF92EF9220
:10089000FF92CF93DF934B015C0129013A01C0E045
:1008A000D0E0C12C90E8D92EE12CF12C0CC081E3D2
:1008B00090E00E942513F694E794D794C79421966C
:1008C000C031D10501F1D701C60188219921AA21A2
:1008D000BB21892B8A2B8B2B29F1D701C6018421BF
:1008E0009521A621B721892B8A2B8B2B01F780E339
:1008F00090E00E942513F694E794D794C79421962C
:10090000C031D10501F7DF91CF91FF90EF90DF90DB
:10091000CF90BF90AF909F908F907F906F905F909F
:100920004F90089588E590E00E942513C4CF4F9220
:100930005F926F927F928F929F92AF92BF92CF926F
:10094000DF92EF92FF920F931F93CF93DF93CDB778
:10095000DEB728970FB6F894DEBF0FBECDBF6B0190
:100960007C0120E030E0A9010E943C1487FDB8C161
:10097000A7019601C701B6010E943C1481118AC1EA
:10098000A7019601C701B6010E94CF139B01AC01DC
:100990000E943C148823F1F043E050E060E070E0F6
:1009A0008BE292E028960FB6F894DEBF0FBECDBF63
:1009B000DF91CF911F910F91FF90EF90DF90CF903B
:1009C000BF90AF909F908F907F906F905F904F906F
:1009D0000C94AA032DEB37E346E055E3C701B601BB
:1009E0000E943C14181654F020E030E0A901C70121
:1009F000B6010E949B1518160CF466C120E030E089
:100A000040E85FE4C701B6010E943C1487FDBCC00A
:100A100020E030E040E251E4C701B6010E944114F9
:100A20004B015C0128E23BE64EE65EE40E949B152A
:100A300087FD64C1412C512C80E2682E81E4782E20
:100A400009E010E020E030E040E251E4C301B201EF
:100A50000E94A0152B013C010F5F1F4F9B01AC01B1
:100A6000C701B6010E9441144B015C0128E23BE63C
:100A70004EE65EE40E949B1587FFE4CFC801012E7D
:100A8000000CAA0BBB0B89839A83AB83BC8320E049
:100A900030E040E05FE3C501B4010E94D0130E9442
:100AA000B3142B013C010E94EB14A50194010E9498
:100AB0009B1518165CF5D301C2010197A109B10974
:100AC0008D839E83AF83B887BC01CD010E94EB1458
:100AD0009B01AC01C501B4010E94CF1320E030E0BE
:100AE00040E05FE30E943C14181684F040FE0EC004
:100AF00028E736E847E054E6C701B6010E943C14F7
:100B000087FF04C04D805E806F807884C301B2018E
:100B100020E031EE45EF55E00E94AA136B017C0105
:100B2000C901C0960E94251320E836E948E950E043
:100B3000C701B6010E947A0185E690E00E94251364
:100B40008BE290E00E9425130930110509F4D1C011
:100B500069817A818B819C8128960FB6F894DEBFDB
:100B60000FBECDBFDF91CF911F910F91FF90EF90FE
:100B7000DF90CF90BF90AF909F908F907F906F90BD
:100B80005F904F900C943C02C701B6010E94BA14CA
:100B90002B013C010E94E9149B01AC01C701B60185
:100BA0000E94CF1320E034E244E759E40E94A015EC
:100BB00069837A838B839C8320E030E040E05FE3AD
:100BC0000E94D0130E94B3144B015C010E94EB14ED
:100BD0009B01AC0169817A818B819C810E943C14CC
:100BE00087FF2DC0D501C4010197A109B1098D83EB
:100BF0009E83AF83B887BC01CD010E94EB149B019B
:100C0000AC0169817A818B819C810E94CF1320E0A5
:100C100030E040E05FE30E943C14181684F080FE50
:100C20000EC028E736E847E054E6C701B6010E9447
:100C30003C1487FF04C08D809E80AF80B88490E410
:100C4000891692E499069FE0A906B10409F43FC011
:100C5000C301B2010E94D80120EA36E841E050E029
:100C6000C501B40128960FB6F894DEBF0FBECDBF04
:100C7000DF91CF911F910F91FF90EF90DF90CF9078
:100C8000BF90AF909F908F907F906F905F904F90AC
:100C90000C947A0185E192E028960FB6F894DEBFB5
:100CA0000FBECDBFDF91CF911F910F91FF90EF90BD
:100CB000DF90CF90BF90AF909F908F907F906F907C
:100CC0005F904F900C94920283E491E0E5CFAFEFF8
:100CD0004A1A5A0A6A0A7A0A812C912C5401B8CF0E
:100CE0008DE290E00E942513F7FAF094F7F8F09463
:100CF0003FCE80E390E00E9425132ACF89E090E068
:100D0000A0E0B0E089839A83AB83BC8309E010E064
:100D1000BECE8091920490919304A0919404B091DE
:100D20009504892B8A2B8B2B99F580918E049091B9
:100D30008F04A0919004B0919104892B8A2B8B2B66
:100D4000D9F18091860490918704A0918804B09194
:100D500089040196A11DB11D809386049093870498
:100D6000A0938804B093890410928E0410928F048B
:100D70001092900410929104109292041092930495
:100D800010929404109295048AE090E00C9425133C
:100D900080918A0490918B04A0918C04B0918D0471
:100DA0000196A11DB11D80938A0490938B04A0939A
:100DB0008C04B0938D04D8CF40917E0450917F0471
:100DC0006091800470918104809176049091770401
:100DD0000E94D20288E093E00E949202C5CF2F9237
:100DE0003F924F925F926F927F928F929F92AF92BB
:100DF000BF92CF92DF92EF92FF920F931F93CF9308
:100E0000DF9300D000D0CDB7DEB740908E04509075
:100E10008F046090900470909104452846284728DC
:100E2000D1F4409092045090930460909404709098
:100E3000950445284628472871F429013A014E2493
:100E40005F2460267126462257226822792245288F
:100E500046284728B9F40F900F900F900F90DF911C
:100E6000CF911F910F91FF90EF90DF90CF90BF90A7
:100E7000AF909F908F907F906F905F904F903F903A
:100E80002F9008951601670178012B013C01C501DF
:100E9000B40129833A834B835C830E94FE0289EE6E
:100EA00092E00E94920229813A814B815C81C301C8
:100EB000B2010E943D0483EE92E00E949202A701DB
:100EC0009601C301B2010E943D04C1010E940E03BC
:100ED00081E090E0A0E0B0E080938E0490938F04D6
:100EE000A0939004B093910461E070E086E994E0EF
:100EF0000E9424184F925F926F927F92AF92BF929E
:100F0000CF92DF92EF92FF920F931F93CF93DF93D5
:100F100000D000D0CDB7DEB740908E0450908F0443
:100F2000609090047090910445284628472889F4E1
:100F300040909204509093046090940470909504B3
:100F400045284628472829F4621773078407950720
:100F500099F40F900F900F900F90DF91CF911F9108
:100F60000F91FF90EF90DF90CF90BF90AF907F9068
:100F70006F905F904F900895C982DA82EB82FC8275
:100F800069017A012B013C0169817A818B819C8105
:100F90000E94FE0289EE92E00E9492024A2DC30155
:100FA000B2010E940F0483EE92E00E9492024A2D49
:100FB000C701B6010E940F04C8010E940E0381E020
:100FC00090E0A0E0B0E080938E0490938F04A09313
:100FD0009004B093910461E070E086E994E00E948F
:100FE00024182F923F924F925F926F927F928F922E
:100FF0009F92AF92BF92CF92DF92EF92FF920F93A8
:101000001F93CF93DF93CDB7DEB72E970FB6F8942B
:10101000DEBF0FBECDBF9A8389833B0119012A0130
:101020001E830D83AC828B8280918E0490918F04FD
:10103000A0919004B0919104892B8A2B8B2B09F0FD
:101040006FC08091920490919304A0919404B09108
:101050009504892B8A2B8B2B09F062C0232B242B20
:10106000252B09F4F4C029813A812617370709F4A2
:1010700057C00D811E81A701960189819A810E9426
:101080004303892B09F0D1C08C818F7090E0B201AD
:10109000A10141505109610971094F83588769873E
:1010A0007A87B201A10122C0E981FA816081718150
:1010B0001B01770F44085508F301608171814B01D2
:1010C000770FAA08BB08281439044A045B0409F006
:1010D00057C06B81613009F44CC0680E791EBA01AB
:1010E000A9014115510561057105D1F09A01AB01C6
:1010F00021503109410951098130910551F1823066
:10110000910591F2E981FA812080318042805380FB
:10111000F30180809180A280B38084E090E0D3CFFF
:101120002E960FB6F894DEBF0FBECDBFDF91CF91E4
:101130001F910F91FF90EF90DF90CF90BF90AF90F5
:101140009F908F907F906F905F904F903F902F90E7
:101150000895E981FA816081262E660F33084408DC
:101160005508F3016081862E660F9908AA08BB080E
:10117000AACFE981FA81E80FF91FFA83E983ADCF9D
:1011800032012101FC81F5FF20C084309105E9F096
:10119000BC01660F771F660F771F660F771F81E010
:1011A00090E0A0E0B0E004C0880F991FAA1FBB1F09
:1011B0006A95D2F70197A109B109482259226A22FA
:1011C0007B2288229922AA22BB22C701B6012B8743
:1011D0003C874D875E870E94FE0289ED92E00E9467
:1011E00092022B853C854D855E856F81788589854A
:1011F0009A85621B730B840B950B0E94D80189EEB4
:1012000092E00E9492024C81C301B2010E940F043D
:1012100083EE92E00E9492024C81C501B4010E94CB
:101220000F048D819E810E940E0381E090E0A0E07A
:10123000B0E080938E0490938F04A0939004B093B9
:10124000910461E070E086E994E00E942418C701EF
:10125000B6010E94FE028FE692E00E9492028D810A
:101260009E810E940E03E1CF2F923F924F925F9298
:101270006F927F928F929F92AF92BF92CF92DF92A6
:10128000EF92FF920F931F93CF93DF93CDB7DEB70B
:101290002F970FB6F894DEBF0FBECDBF9A83898318
:1012A0004B0129013A011D830C83CE82DF82E8863F
:1012B000F986AB8280918E0490918F04A091900466
:1012C000B0919104892B8A2B8B2B09F068C08091F7
:1012D000920490919304A0919404B0919504892B69
:1012E0008A2B8B2B09F05BC0232B242B252B09F495
:1012F000B2C089819A818617970709F450C00C8182
:101300001D812E813F81488559850E944303892B89
:1013100009F08FC0D301C2010197A109B1098A87E1
:101320009B87AC87BD8714015301420105C081141E
:101330009104A104B10499F191E0891A9108A108DE
:10134000B1083F862E86A4E02A0E311CE981FA817D
:101350004080518062807380AE85BF85CD90DD90E6
:10136000ED90FC902CEA35EC47E257E3C301B20163
:101370000E94A01587017601A30192010E94BD0081
:10138000892B31F1BB81B13091F6E981FA81349634
:10139000FA83E98381149104A104B10469F62F96BC
:1013A0000FB6F894DEBF0FBECDBFDF91CF911F9176
:1013B0000F91FF90EF90DF90CF90BF90AF909F90F4
:1013C0008F907F906F905F904F903F902F900895F7
:1013D0002E843F846E817F81888599850E94FE02DC
:1013E00089ED92E00E9492026A857B858C859D85BD
:1013F000681979098A099B090E94D80189EE92E04F
:101400000E949202E981FA816081718182819381D7
:101410000E94970483EE92E00E949202D1016D91A6
:101420007D918D919C910E9497048C819D810E9459
:101430000E0381E090E0A0E0B0E080938E049093F2
:101440008F04A0939004B093910461E070E086E96A
:1014500094E00E942418C701B6010E94FE028FE6A4
:1014600092E00E9492028C819D810E940E03E1CF46
:101470004F925F926F927F928F929F92AF92BF92A4
:10148000CF92DF92EF92FF920F931F93CF93DF9350
:1014900000D000D0CDB7DEB740908E0450908F04BE
:1014A0006090900470909104452846284728C1F424
:1014B000409092045090930460909404709095042E
:1014C00045284628472861F489829A82AB82BC82EB
:1014D0004701580129013A010E94BD00892BA9F05A
:1014E0000F900F900F900F90DF91CF911F910F9160
:1014F000FF90EF90DF90CF90BF90AF909F908F9034
:101500007F906F905F904F90089569817A818B8171
:101510009C810E94FE0289EE92E00E949202C30129
:10152000B2010E94970483EE92E00E949202C501EC
:10153000B4010E949704C6010E940E0381E090E06E
:10154000A0E0B0E080938E0490938F04A093900469
:10155000B093910461E070E086E994E00E94241861
:101560002F923F924F925F926F927F928F929F92B3
:10157000AF92BF92CF92DF92EF92FF920F931F93A1
:10158000CF93DF93CDB7DEB72F970FB6F894DEBFBA
:101590000FBECDBFE8E0FE2EEEE1F1E0DE011196D8
:1015A00001900D92FA94E1F7CE2CC694D12C809044
:1015B0008E0490908F04A0909004B090910489289C
:1015C0008A288B2861F48090920490909304A090D4
:1015D0009404B090950489288A288B28C9F02F9606
:1015E0000FB6F894DEBF0FBECDBFDF91CF911F9134
:1015F0000F91FF90EF90DF90CF90BF90AF909F90B2
:101600008F907F906F905F904F903F902F900895B4
:10161000480159015A8749872B013C011E2D117041
:101620008E2D90E08830910508F454C081E0812728
:1016300090E0A0E0B0E025EF31E03A832983C12CAF
:10164000D12C7601212F30E040E050E08217930743
:10165000A407B50721F2C501B4011C873D874E8759
:101660005F870E94FE0289EE92E00E9492022C8522
:101670003D854E855F85232B242B252B09F4A4C0A3
:10168000CC0CDD1CE1E0F0E0EC0FFD1FEC0DFD1DCE
:10169000808191810E94920283EE92E00E949202E8
:1016A000C301B2010E94970489859A850E940E03A6
:1016B00081E090E0A0E0B0E080938E0490938F04EE
:1016C000A0939004B093910461E070E086E994E007
:1016D0000E942418FC01EC5CFF4F0C94C91301E03C
:1016E0001B86212C312CA3019201C301B2010E945F
:1016F0003C14882331F1802F9B85D101A3CFA30116
:101700009201C301B2010E94CF139B01AC010E9460
:101710003C14882309F454C0A3019201C301B2010F
:101720000E943C1481114CC001E01B86212C312CFD
:1017300020E030E0A901C301B2010E943C1487FD02
:10174000DACF00E0D8CFA3019201C301B2010E9419
:10175000CF139B01AC010E943C14882389F1A301A3
:101760009201C301B2010E943C14811129C001E021
:101770001B86212C312C20E030E0A901C301B201ED
:101780000E949B1518160CF4B6CFDBCFA301920173
:10179000C301B2010E94CF139B01AC010E943C1413
:1017A00081110EC001E01B86212C312CA301920176
:1017B000C301B2010E943C14882309F49CCFC1CF1D
:1017C00080E090E0DC013ECF84E392E00E94920250
:1017D00057CF2F923F924F925F926F927F928F924C
:1017E0009F92AF92BF92CF92DF92EF92FF920F93B0
:1017F0001F93CF93DF9300D000D0CDB7DEB74090DA
:101800008E0450908F04609090047090910445284D
:101810004628472899F54090920450909304609090
:1018200094047090950445284628472839F5E98D99
:10183000E4FF3BC02E153F0540075107DCF1B1E046
:10184000A0E0F0E0E0E029013A014E185F08600AEC
:10185000710A6415750586059705D8F54B2E5A2E25
:101860006F2E7E2E40928E0450928F0460929004D0
:101870007092910445284628472869F50F900F90EB
:101880000F900F90DF91CF911F910F91FF90EF90EC
:10189000DF90CF90BF90AF909F908F907F906F9090
:1018A0005F904F903F902F9008952E153F05400771
:1018B000510728F6B1E0A0E0F0E0E0E027013801B0
:1018C000421A530A640A750A641575058605970558
:1018D00028F2B0E0C3CF16016701780129013A016F
:1018E00069837A838B839C83C501B4010E94FE02C5
:1018F00086EA92E00E949202498D69817A818B8109
:101900009C810E940F0489EE92E00E949202498D10
:10191000C301B2010E940F0483EE92E00E94920282
:10192000498DC701B6010E940F04C1010E940E0338
:1019300081E090E0A0E0B0E080938E0490938F046B
:10194000A0939004B093910461E070E086E994E084
:101950000E9424184F925F926F927F92CF92DF92F3
:10196000EF92FF920F931F93CF93DF937C01DB01E4
:101970006A0140918E0450918F046091900470919F
:101980009104452B462B472B09F045C0409192040A
:10199000509193046091940470919504452B462BCB
:1019A000472BC9F50097A9F1109769F0FC01ED01EB
:1019B00060E070E0919191113BC0FD01E60FF71FCF
:1019C0009081992341F1C901B801ED01412C512CBD
:1019D0003201439440928E0450928F04609290049E
:1019E000709291040E94FE02BE01C7010E94700322
:1019F000C6010E940E0340928E0450928F046092A2
:101A000090047092910461E070E086E994E00E9495
:101A100024181097C1F6DF91CF911F910F91FF907D
:101A2000EF90DF90CF907F906F905F904F900895F0
:101A300059916F5F7F4F951709F4BCCFC4CF4F9278
:101A40005F926F927F928F929F92AF92BF92CF924E
:101A5000DF92EF92FF920F931F93CF93DF93FC01DE
:101A6000EB0140908E0450908F0460909004709031
:101A7000910445284628472809F075C080919204B2
:101A800090919304A0919404B0919504892B8A2B92
:101A90008B2B09F068C0C701B60149015A017F01CB
:101AA000309709F45EC02097A1F0232B242B252B1F
:101AB00009F459C0DF01AE01412C512C3201F20171
:101AC0002D91211161C0EC0FFD1F2081222309F40B
:101AD0004AC0412C512C3201439440928E045092C2
:101AE0008F0460929004709291040E94FE0289EE2D
:101AF00092E00E94920287E290E00E942513B501D5
:101B0000A401C7010E94AA0387E290E00E94251366
:101B100083EE92E00E949202209709F461C087E26E
:101B200090E00E942513B501A401CE010E94AA03F2
:101B300087E290E00E942513C8010E940E0381E015
:101B400090E0A0E0B0E080938E0490938F04A09387
:101B50009004B093910461E070E086E994E00E9403
:101B60002418209711F5DF91CF911F910F91FF90CD
:101B7000EF90DF90CF90BF90AF909F908F907F902D
:101B80006F905F904F900895FA013191AF01231348
:101B9000A0CFFFEF4F1A5F0A6F0A7F0A481459045B
:101BA0006A047B0409F08BCFDECFC12CD12C7601E7
:101BB000C394C0928E04D0928F04E0929004F0926D
:101BC00091040E94FE0289EE92E00E94920287EF49
:101BD00092E00E94920283EE92E00E9492029FCFD6
:101BE00087EF92E00E949202A7CF2F923F924F92EE
:101BF0005F926F927F928F929F92AF92BF92CF929D
:101C0000DF92EF92FF920F931F93CF93DF93CDB7A5
:101C1000DEB728970FB6F894DEBF0FBECDBF409059
:101C20008E0450908F046090900470909104452829
:101C30004628472809F0ADC0409092045090930484
:101C4000609094047090950445284628472809F030
:101C5000A0C03A2CCB82DC82ED82FE821A830983FB
:101C600069017A013B012C01232B242B252B09F43C
:101C7000B8C08617970709F48CC009811A812B8197
:101C80003C814D815E810E944303892B09F05AC03B
:101C900081E0A81609F4A2C0820180908E04909081
:101CA0008F04A0909004B0909104B301A201412C44
:101CB000512C3201332DFB0121903190BF01313085
:101CC00009F488C00115110509F44EC0211431042E
:101CD00089F0F801D10180E090E038862F822191CF
:101CE000211170C02F803884F101E80FF91F808125
:101CF0008823E9F181E090E0A0E0B0E080938E04D9
:101D000090938F04A0939004B09391046B817C8195
:101D10008D819E810E94FE02F2E0CF16D104E10483
:101D2000F10440F089ED92E00E949202C301B201F9
:101D30000E94D801B101C8010E94700389819A8173
:101D40000E940E0381E090E0A0E0B0E080938E045A
:101D500090938F04A0939004B093910461E070E09D
:101D600086E994E00E9424182114310419F68114A4
:101D70009104A104B10451F68FEF481A580A680A79
:101D8000780A4E5F5F4F4C145D046E047F0409F0C7
:101D900092CF28960FB6F894DEBF0FBECDBFDF916D
:101DA000CF911F910F91FF90EF90DF90CF90BF9058
:101DB000AF909F908F907F906F905F904F903F90EB
:101DC0002F9008953D900196231509F488CF2F8018
:101DD000388490CFFA010081118174CF00E010E0C7
:101DE0005CCF6B817C818D819E810E94FE028FE69B
:101DF00092E00E94920289819A810E940E03A2CFF2
:101E00002F923F924F925F926F927F928F929F920A
:101E1000AF92BF92CF92DF92EF92FF920F931F93F8
:101E2000CF93DF93CDB7DEB768970FB6F894DEBFD8
:101E30000FBECDBF9A8389833B0119012A01EB8232
:101E4000FC820D831E83DC86CB868D869E86AF86C4
:101E5000B88A80918E0490918F04A0919004B091E3
:101E60009104892B8A2B8B2B09F083C080919204DB
:101E700090919304A0919404B09195048F839887D6
:101E8000A987BA87892B8A2B8B2B09F072C0EF2880
:101E9000E02AE12A09F4EFC0232B242B252B09F497
:101EA000EAC0A981BA81A617B70709F462C00B85F9
:101EB0001C852D853E854F855889CD010E944303A1
:101EC000892B09F0C3C08B819C81AD81BE810197B4
:101ED000A109B109898B9A8BAB8BBC8BD201C10153
:101EE0000197A109B1098D8B9E8BAF8BB88FCB80E9
:101EF000DC80ED80FE8009811A8192E0291A310888
:101F000041085108F801D3017DA481E0C81AD10825
:101F1000E108F10890818C919813AAC09F012F5F6E
:101F20003F4FCD010196B201A10112C09F012F5F69
:101F30003F4FCD0101964A015B0111E0811A9108E2
:101F4000A108B10800811C9101132CC0B501A401A6
:101F5000F901DC014F3F1FEF51076107710731F7AE
:101F6000711002C0E981FA81C114D104E104F104C5
:101F700061F668960FB6F894DEBF0FBECDBFDF9155
:101F8000CF911F910F91FF90EF90DF90CF90BF9076
:101F9000AF909F908F907F906F905F904F903F9009
:101FA0002F9008958F013D018D899E89AF89B88D4D
:101FB000841B950BA60BB70B8F839887A987BA87CD
:101FC0006D857E858F8598890E94FE0280EC92E067
:101FD0000E9492028B819C81AD81BE810297A105F6
:101FE000B10570F089ED92E00E94920269897A89C8
:101FF0008B899C896C197D098E099F090E94D801E3
:1020000082ED92E00E9492026F81788589859A859F
:102010000E94D80189EE92E00E949202D8016C9150
:1020200070E080E090E041E40E940F0483EE92E0D3
:102030000E949202F301608170E080E090E041E450
:102040000E940F048B859C850E940E0381E090E026
:10205000A0E0B0E080938E0490938F04A09390044E
:10206000B093910461E070E086E994E00E94241846
:102070008F013D01A5CF6D857E858F8598890E9452
:10208000FE028FE692E00E9492028B859C850E9460
:102090000E03DCCF4130A1F0423059F06093680468
:1020A0007093690480936A0490936B0488E694E0CB
:1020B0000895609368047093690488E694E0089535
:1020C0006093680488E694E00895609368047093D0
:1020D000690480936A0490936B0488E694E0089501
:1020E0000F931F93CF93DF9300918E0410918F0471
:1020F0002091900430919104012B022B032B61F469
:1021000000919204109193042091940430919504CD
:10211000012B022B032B29F0DF91CF911F910F91FF
:102120000895EC0180917604909177040E94D20288
:1021300083E093E00E949202209791F18AE390E07D
:102140000E94251380917A0490917B04892BF1F0F1
:102150008AE591E00E94920280917A0490917B043A
:102160000E94920280917C0490917D04892B51F011
:102170008FE491E00E94920280917C0490917D0412
:102180000E94920284EF92E00E9492028881803243
:1021900021F080E290E00E942513CE010E9492027D
:1021A00081E090E0A0E0B0E080938E0490938F04F3
:1021B000A0939004B093910461E070E086E994E00C
:1021C0000E9424180F931F9300918E0410918F0486
:1021D0002091900430919104012B022B032B61F488
:1021E00000919204109193042091940430919504ED
:1021F000012B022B032B19F01F910F9108958C01D5
:1022000080917604909177040E94D2028CEF92E044
:102210000E9492020115110559F08AE390E00E9494
:10222000251380E290E00E942513C8010E949202CB
:1022300081E090E0A0E0B0E080939204909393045A
:10224000A0939404B093950461E070E086E994E073
:102250000E94241808950895CF93DF9300D0CDB73E
:10226000DEB79A838983E6E7F4E073836283052E01
:10227000000C660B770B40875187628773878485D4
:102280009585A685B7850196A11DB11D8487958783
:10229000A687B787158214821782168286E994E092
:1022A0000E940418892B69F086E994E00E940418C2
:1022B000892B91F00E9489060F900F90DF91CF91AA
:1022C00008950E942A11E981FA81099586E994E02E
:1022D0000E940418892B71F70E942B110E94890615
:1022E0000F900F90DF91CF910895E6E7F4E091838E
:1022F00080831382128210861186128613861486BA
:10230000158616861786108A118A128A138A148AED
:10231000158A168A178A108E118E128E138E148EBD
:10232000158E168E178E158214821782168220E063
:102330003BE440E050E060E074E284EF90E00C9415
:10234000F4128AE090E00E94251381E891E00E9457
:1023500092028AE090E00E942513609182047091BD
:10236000830480918404909185040E943C0289E753
:1023700091E00E949202609186047091870480919E
:102380008804909189040E943C028EE691E00E94AC
:10239000920260918A0470918B0480918C049091D8
:1023A0008D040E943C0284E691E00E9492028AE041
:1023B00090E00E9425138091860490918704A0915B
:1023C0008804B0918904892B8A2B8B2B79F083E0C8
:1023D00093E00E9492028AE090E00E9425130E94FE
:1023E0002C13809186049091870408958DE093E0EA
:1023F0000E949202F0CF20916C0430916D048217FC
:10240000930790F4E0916E04F0916F048E0F9F1F7C
:10241000FC013497408151814230510528F0421728
:10242000530710F4CA01089580E090E008950F93D7
:102430001F93CF93DF93009771F18C010C5F1F4FB7
:10244000980123703327232B19F007968C010C7FFA
:102450006091060170910701C0916C04D0916D04E8
:10246000CB018C1B9D0B80179107E0F0E0916E046F
:10247000F0916F04EC0FFD1F118210820C0F1D1FD5
:1024800010936D0400936C04CE010496DF91CF91FC
:102490001F910F91089580E090E0DF91CF911F91FF
:1024A0000F9108957058600F711F7093070160932A
:1024B000060180916E0490916F040E943A179093E8
:1024C0006F0480936E04009731F3FC01D3CF009723
:1024D00061F18430910530F140916C0450916D04AC
:1024E00084179507F8F464307105E0F064177507F8
:1024F000C8F4A0916E04B0916F04FD01E80FF91FBC
:102500003497208131812417350760F42115310576
:1025100071F0FD01E20FF31F349720813181241700
:102520003507A0F380E090E00895CB010895718312
:10253000608308958430910510F00C94FB1180E0C5
:1025400090E00895CF93DF93EC01892B19F0C4300C
:10255000D10520F4CE01DF91CF910895CE010E94E4
:10256000FB110097B9F3EC01F2CF8430910570F0C4
:1025700020916C0430916D048217930738F42091F8
:102580006E0430916F04820F931F089580E090E0F5
:102590000895809106019091070120916C0430917B
:1025A0006D04821B930B089580916C0490916D04CF
:1025B0000497089584E090E090936D0480936C04F8
:1025C000089584E090E090936D0480936C04809172
:1025D0006E0490916F04009731F00E94A216109241
:1025E0006F0410926E0408950F931F9389019A014E
:1025F000000F111F221F331F000F111F221F331F37
:10260000000F111F221F331F600F711F821F931FA6
:10261000000F111F221F331FA901980121503109FA
:10262000410951090E9488133093C5002093C400CA
:10263000E1ECF0E0808188608083E2ECF0E0808172
:102640008E6080831F910F9108959091C00095FF37
:10265000FCCF8093C60008958091C00085FFFCCF19
:1026600083E58093C6008091C00085FFFCCF84E5A0
:102670008093C6008091C00085FFFCCF8FE48093DB
:10268000C6008091C00085FFFCCF80E58093C60026
:102690008091C00085FFFCCF83E58093C6008091C8
:1026A000C00085FFFCCF84E58093C6008091C00008
:1026B00085FFFCCF8FE48093C6008091C00085FF2A
:1026C000FCCF80E58093C6008091C00085FFFCCFE1
:1026D00083E58093C6008091C00085FFFCCF84E530
:1026E0008093C6008091C00085FFFCCF8FE480936B
:1026F000C6008091C00085FFFCCF80E58093C600B6
:102700008091C00085FFFCCF8AE08093C6000895C9
:10271000A1E21A2EAA1BBB1BFD010DC0AA1FBB1FE5
:10272000EE1FFF1FA217B307E407F50720F0A21B57
:10273000B30BE40BF50B661F771F881F991F1A94C4
:1027400069F760957095809590959B01AC01BD01EE
:10275000CF010895052E97FB1EF400940E94C1132B
:1027600057FD07D00E94881307FC03D04EF40C9449
:10277000C11350954095309521953F4F4F4F5F4F76
:10278000089590958095709561957F4F8F4F9F4FDD
:102790000895EE0FFF1F0590F491E02D0994505815
:1027A000BB27AA270E94E7130C9461150E945315BA
:1027B00038F00E945A1520F039F49F3F19F426F49E
:1027C0000C9450150EF4E095E7FB0C944A15E92F94
:1027D0000E94721558F3BA176207730784079507AA
:1027E00020F079F4A6F50C9494150EF4E0950B2ED8
:1027F000BA2FA02D0B01B90190010C01CA01A00153
:102800001124FF27591B99F0593F50F4503E68F1AD
:102810001A16F040A22F232F342F4427585FF3CFEE
:10282000469537952795A795F0405395C9F77EF4BF
:102830001F16BA0B620B730B840BBAF09150A1F008
:10284000FF0FBB1F661F771F881FC2F70EC0BA0F8E
:10285000621F731F841F48F4879577956795B79516
:10286000F7959E3F08F0B0CF9395880F08F0992711
:10287000EE0F9795879508950E94261508F481E03C
:1028800008950E9455140C9461150E945A1558F031
:102890000E94531540F029F45F3F29F00C944A152B
:1028A00051110C9495150C9450150E94721568F3F3
:1028B0009923B1F3552391F3951B550BBB27AA27F9
:1028C00062177307840738F09F5F5F4F220F331F33
:1028D000441FAA1FA9F335D00E2E3AF0E0E832D0FB
:1028E00091505040E695001CCAF72BD0FE2F29D0FE
:1028F000660F771F881FBB1F261737074807AB07D0
:10290000B0E809F0BB0B802DBF01FF2793585F4F44
:102910003AF09E3F510578F00C944A150C949515A9
:102920005F3FE4F3983ED4F3869577956795B79526
:10293000F7959F5FC9F7880F911D9695879597F931
:102940000895E1E0660F771F881FBB1F62177307AA
:102950008407BA0720F0621B730B840BBA0BEE1FBF
:1029600088F7E09508950E94BA146894B1110C9408
:10297000951508950E947A1588F09F5798F0B92F01
:102980009927B751B0F0E1F0660F771F881F991FA4
:102990001AF0BA95C9F714C0B13091F00E9494159D
:1029A000B1E008950C949415672F782F8827B85FAD
:1029B00039F0B93FCCF3869577956795B395D9F7FC
:1029C0003EF490958095709561957F4F8F4F9F4F06
:1029D0000895E89409C097FB3EF490958095709512
:1029E00061957F4F8F4F9F4F9923A9F0F92F96E95B
:1029F000BB279395F695879577956795B795F111D0
:102A0000F8CFFAF4BB0F11F460FF1BC06F5F7F4F6C
:102A10008F4F9F4F16C0882311F096E911C077237E
:102A200021F09EE8872F762F05C0662371F096E887
:102A3000862F70E060E02AF09A95660F771F881F56
:102A4000DAF7880F9695879597F90895990F0008FA
:102A5000550FAA0BE0E8FEEF16161706E807F90770
:102A6000C0F012161306E407F50798F0621B730B0B
:102A7000840B950B39F40A2661F0232B242B252B8C
:102A800021F408950A2609F4A140A6958FEF811D2F
:102A9000811D089597F99F6780E870E060E00895D0
:102AA0009FEF80EC089500240A9416161706180666
:102AB0000906089500240A94121613061406050642
:102AC0000895092E0394000C11F4882352F0BB0FD3
:102AD00040F4BF2B11F460FF04C06F5F7F4F8F4F36
:102AE0009F4F089557FD9058440F551F59F05F3F71
:102AF00071F04795880F97FB991F61F09F3F79F020
:102B000087950895121613061406551FF2CF4695A1
:102B1000F1DF08C0161617061806991FF1CF869523
:102B20007105610508940895E894BB276627772707
:102B3000CB0197F908950E94261508F48FEF0895A8
:102B40000E94B3150C9461150E94531538F00E9431
:102B50005A1520F0952311F00C944A150C94501539
:102B600011240C9495150E94721570F3959FC1F372
:102B7000950F50E0551F629FF001729FBB27F00D2B
:102B8000B11D639FAA27F00DB11DAA1F649F662780
:102B9000B00DA11D661F829F2227B00DA11D621FCF
:102BA000739FB00DA11D621F839FA00D611D221F89
:102BB000749F3327A00D611D231F849F600D211D6D
:102BC000822F762F6A2F11249F5750409AF0F1F0F0
:102BD00088234AF0EE0FFF1FBB1F661F771F881F59
:102BE00091505040A9F79E3F510580F00C944A1532
:102BF0000C9495155F3FE4F3983ED4F38695779552
:102C00006795B795F795E7959F5FC1F7FE2B880FFE
:102C1000911D9695879597F90895CF93DF9382300C
:102C2000910510F482E090E0E091AF04F091B004DF
:102C300020E030E0C0E0D0E0309711F140815181D8
:102C400048175907C0F04817590761F482819381EA
:102C5000209719F09B838A832BC09093B0048093B4
:102C6000AF0426C02115310519F04217530718F497
:102C70009A01BE01DF01EF010280F381E02DDCCF7C
:102C80002115310509F1281B390B2430310590F449
:102C900012968D919C9113976115710521F0FB019E
:102CA0009383828304C09093B0048093AF04FD01AA
:102CB000329644C0FD01E20FF31F8193919322509D
:102CC00031092D933C933AC02091AD043091AE046C
:102CD000232B41F420910201309103013093AE0483
:102CE0002093AD042091000130910101211531059F
:102CF00041F42DB73EB74091040150910501241BCA
:102D0000350BE091AD04F091AE04E217F307A0F4A7
:102D10002E1B3F0B2817390778F0AC014E5F5F4F31
:102D20002417350748F04E0F5F1F5093AE044093B1
:102D3000AD048193919302C0E0E0F0E0CF01DF9118
:102D4000CF9108950F931F93CF93DF93009709F4CA
:102D50008CC0FC013297138212820091AF04109153
:102D6000B0040115110581F420813181820F931F78
:102D70002091AD043091AE042817390779F5F0930E
:102D8000AE04E093AD0471C0D80140E050E0AE174E
:102D9000BF0750F412962D913C911397AD01211568
:102DA000310509F1D901F3CF9D01DA013383228383
:102DB00060817181860F971F8217930769F4EC0178
:102DC00028813981260F371F2E5F3F4F31832083A3
:102DD0008A819B8193838283452B29F4F093B004ED
:102DE000E093AF0442C01396FC93EE931297ED016B
:102DF000499159919E01240F351FE217F30771F491
:102E000080819181840F951F029611969C938E93D9
:102E10008281938113969C938E931297E0E0F0E069
:102E2000D80112968D919C911397009719F0F80193
:102E30008C01F6CF8D919C9198012E5F3F4F820FB0
:102E4000931F2091AD043091AE042817390769F41F
:102E5000309729F41092B0041092AF0402C013828C
:102E600012821093AE040093AD04DF91CF911F91B5
:102E70000F910895A0E0B0E0E0E4F7E10C9452185F
:102E8000EC01009721F4CB010E940D16B8C0FC01A3
:102E9000E60FF71F9C0122503109E217F30708F4EF
:102EA000ACC0D9010D911C91119706171707B0F00E
:102EB0000530110508F49FC0C801049786179707CD
:102EC00008F499C002501109061B170B01931193C6
:102ED0006D937C93CF010E94A2168DC05B01A01A56
:102EE000B10A4C01800E911EA091AF04B091B004C4
:102EF00040E050E0E12CF12C109709F44AC0A815ED
:102F0000B905D1F56D907C901197630182E0C80EF0
:102F1000D11CCA14DB0480F1A3014A195B096A01C0
:102F200082E0C80ED11C1296BC9012971396AC91F9
:102F3000B5E0CB16D10440F0B282A3835183408325
:102F4000D9016D937C930AC00E5F1F4FC301800FA0
:102F5000911FF90191838083EB2DFA2FE114F10485
:102F600031F0D7011396FC93EE93129744C0F0937F
:102F7000B004E093AF043FC08D919C911197481726
:102F8000590708F4AC017D0112960D90BC91A02D5B
:102F9000B3CF8091AD049091AE0488159905E1F40A
:102FA00046175707C8F480910001909101010097DE
:102FB00041F48DB79EB74091040150910501841BE7
:102FC000950BE817F907C8F4F093AE04E093AD044D
:102FD000F901718360830FC0CB010E940D167C0143
:102FE000009759F0A801BE010E944518CE010E9429
:102FF000A216C70104C0CE0102C080E090E0CDB7A8
:10300000DEB7EEE00C946E18DC012D923D924D92ED
:103010005D926D927D928D929D92AD92BD92CD9278
:10302000DD92ED92FD920D931D93CD93DD93FF9173
:10303000EF918DB78D938EB78D938FB78D93ED9361
:10304000FD93882799270994DC01CB0181309105F4
:10305000811D2D903D904D905D906D907D908D9057
:103060009D90AD90BD90CD90DD90ED90FD900D9137
:103070001D91CD91DD91ED91FD910D90F894FEBFE4
:103080000FBEEDBFED91FD910994FB01DC0102C083
:1030900001900D9241505040D8F708952F923F92E1
:1030A0004F925F926F927F928F929F92AF92BF9258
:1030B000CF92DF92EF92FF920F931F93CF93DF9304
:1030C000CDB7DEB7CA1BDB0B0FB6F894DEBF0FBE61
:1030D000CDBF09942A88398848885F846E847D84AE
:1030E0008C849B84AA84B984C884DF80EE80FD80B0
:1030F0000C811B81AA81B981CE0FD11D0FB6F89426
:0E310000DEBF0FBECDBFED010895F894FFCFE6
:10310E000000B10420000400100340034F036003CD
:10311E008403A403B903D503F303140435042B026B
:10312E00190215020902746573745F5468696E673B
:10313E00732E6300746573745F736F6D6574686965
:10314E006E6700302E3030303030302E2E2E002074
:10315E00417267756D656E74200046756E63746995
:10316E006F6E20002049676E6F72656420002046E6
:10317E0061696C75726573200020546573747320D9
:10318E00002D2D2D2D2D2D2D2D2D2D2D2D2D2D2D8E
:10319E002D2D2D2D2D2D2D2D00556E69747920364A
:1031AE00342D62697420537570706F727420446987
:1031BE007361626C656400556E69747920446F7535
:1031CE00626C6520507265636973696F6E20446925
:1031DE007361626C656400556E69747920466C6F1C
:1031EE006174696E6720506F696E742044697361F3
:1031FE00626C656400496E76616C696420466C6F22
:10320E0061742054726169740044657465726D69ED
:10321E006E617465004E614E004E6567617469762D
:10322E006520496E66696E69747900496E66696ECD
:10323E00697479004E6F7420002041637475616C5F
:10324E0020706F696E74657220776173204E554CD5
:10325E004C0020457870656374656420706F696EEC
:10326E0074657220746F206265204E554C4C0020A0
:10327E00596F752041736B6564204D6520546F2026
:10328E00436F6D70617265204E6F7468696E672C46
:10329E002057686963682057617320506F696E7498
:1032AE006C6573732E002056616C756573204E6FBE
:1032BE00742057697468696E2044656C74612000CF
:1032CE00204D656D6F7279204D69736D6174636801
:1032DE002E002042797465200020456C656D656E68
:1032EE007420002057617320002045787065637448
:1032FE00656420002E20004E554C4C0049474E4F21
:10330E005245004641494C0050415353004F4B002B
:10331E0046756E6374696F6E2063616C6C656420B4
:10332E007769746820756E6578706563746564205E
:10333E00617267756D656E742076616C75652E00B1
:10334E004578706563746564204E554C4C2E005064
:10335E006F696E746572206973204E554C4C2E0049
:10336E0052657475726E5468727550747220636112
:10337E006C6C6564206265666F7265204578706559
:10338E0063742E0049676E6F7265417267206361C8
:10339E006C6C6564206265666F7265204578706539
:1033AE0063742E0043616C6C6564206F7574206FBE
:1033BE0066206F726465722E0043616C6C656420CA
:1033CE006C61746572207468616E206578706563D7
:1033DE007465642E0043616C6C6564206561726C6B
:1033EE00696572207468616E2065787065637465B6
:1033FE00642E0043616C6C6564206C65737320747D
:10340E00696D6573207468616E206578706563748C
:10341E0065642E0043616C6C6564206D6F7265206F
:10342E0074696D6573207468616E2065787065636C
:10343E007465642E00434D6F636B20686173207258
:10344E00756E206F7574206F66206D656D6F727965
:10345E002E20506C6561736520616C6C6F636174B6
:08346E0065206D6F72652E00F0
:00000001FF
