:100000000C9472000C947E000C947E000C947E0084
:100010000C947E000C947E000C947E000C947E0068
:100020000C947E000C947E000C947E000C947E0058
:100030000C947E000C947E000C947E000C947E0048
:100040000C947E000C947E000C947E000C947E0038
:100050000C947E000C947E000C947E000C947E0028
:100060000C947E000C947E000C947E000C947E0018
:100070000C947E000C947E000C947E000C947E0008
:100080000C947E000C947E000C947E000C947E00F8
:100090000C947E000C947E000C947E000C947E00E8
:1000A0000C947E000C947E000C947E000C947E00D8
:1000B0000C947E000C947E000C947E000C947E00C8
:1000C0000C947E000C947E000C947E000C947E00B8
:1000D0000C947E000C947E000C947E000C947E00A8
:1000E0000C947E0011241FBECFEFD1E2DEBFCDBF46
:1000F00000E00CBF0E9480000C94F3010C940000FF
:1001000020E03BE440E050E060E074E284EF90E007
:100110000E943D0184E390E00E946E0182E390E042
:100120000E946E018AE090E00E946E012FEF83ED45
:1001300090E3215080409040E1F700C0000082E34E
:1001400090E00E946E0184E390E00E946E018AE0DC
:1001500090E00E946E012FEF83ED90E321508040EC
:100160009040E1F700C0000084E390E00E946E013F
:1001700082E390E00E946E018AE090E00E946E01AE
:100180002FEF83ED90E3215080409040E1F700C0D5
:10019000000082E390E00E946E0184E390E00E9400
:1001A0006E018AE090E00E946E012FEF83ED90E3F4
:1001B000215080409040E1F700C0000084E390E0CF
:1001C0000E946E0182E390E00E946E018AE090E05E
:1001D0000E946E012FEF83ED90E32150804090400C
:1001E000E1F700C0000082E390E00E946E0184E32A
:1001F00090E00E946E018AE090E00E946E012FEF75
:1002000083ED90E3215080409040E1F700C0000072
:1002100083E590E00E946E0184E590E00E946E010B
:100220008FE490E00E946E0180E590E00E946E01F4
:1002300083E590E00E946E0184E590E00E946E01EB
:100240008FE490E00E946E0180E590E00E946E01D4
:1002500083E590E00E946E0184E590E00E946E01CB
:100260008FE490E00E946E0180E590E00E946E01B4
:100270008AE090E00E946E01FFCF0F931F938901E7
:100280009A01000F111F221F331F000F111F221F81
:10029000331F000F111F221F331F600F711F821F9A
:1002A000931F000F111F221F331FA9019801215016
:1002B0003109410951090E94D1013093C5002093B1
:1002C000C400E1ECF0E0808188608083E2ECF0E043
:1002D00080818E6080831F910F9108959091C0005E
:1002E00095FFFCCF8093C60008958091C00085FFE4
:1002F000FCCF83E58093C6008091C00085FFFCCFD2
:1003000084E58093C6008091C00085FFFCCF8FE418
:100310008093C6008091C00085FFFCCF80E580936C
:10032000C6008091C00085FFFCCF83E58093C600A6
:100330008091C00085FFFCCF84E58093C60080914A
:10034000C00085FFFCCF8FE48093C6008091C00081
:1003500085FFFCCF80E58093C6008091C00085FFBB
:10036000FCCF83E58093C6008091C00085FFFCCF61
:1003700084E58093C6008091C00085FFFCCF8FE4A8
:100380008093C6008091C00085FFFCCF80E58093FC
:10039000C6008091C00085FFFCCF8AE08093C60034
:1003A0000895A1E21A2EAA1BBB1BFD010DC0AA1FB6
:1003B000BB1FEE1FFF1FA217B307E407F50720F0CE
:1003C000A21BB30BE40BF50B661F771F881F991F49
:1003D0001A9469F760957095809590959B01AC0192
:0A03E000BD01CF010895F894FFCF8E
:00000001FF
